{
  "contractName": "Katcontract",
  "abi": [
    {
      "anonymous": false,
      "inputs": [
        {
          "indexed": true,
          "internalType": "address",
          "name": "owner",
          "type": "address"
        },
        {
          "indexed": true,
          "internalType": "address",
          "name": "approved",
          "type": "address"
        },
        {
          "indexed": true,
          "internalType": "uint256",
          "name": "tokenId",
          "type": "uint256"
        }
      ],
      "name": "Approval",
      "type": "event"
    },
    {
      "anonymous": false,
      "inputs": [
        {
          "indexed": false,
          "internalType": "address",
          "name": "owner",
          "type": "address"
        },
        {
          "indexed": false,
          "internalType": "uint256",
          "name": "katId",
          "type": "uint256"
        },
        {
          "indexed": false,
          "internalType": "uint256",
          "name": "motherId",
          "type": "uint256"
        },
        {
          "indexed": false,
          "internalType": "uint256",
          "name": "fatherId",
          "type": "uint256"
        },
        {
          "indexed": false,
          "internalType": "uint256",
          "name": "genes",
          "type": "uint256"
        }
      ],
      "name": "Birth",
      "type": "event"
    },
    {
      "anonymous": false,
      "inputs": [
        {
          "indexed": true,
          "internalType": "address",
          "name": "previousOwner",
          "type": "address"
        },
        {
          "indexed": true,
          "internalType": "address",
          "name": "newOwner",
          "type": "address"
        }
      ],
      "name": "OwnershipTransferred",
      "type": "event"
    },
    {
      "anonymous": false,
      "inputs": [
        {
          "indexed": true,
          "internalType": "address",
          "name": "from",
          "type": "address"
        },
        {
          "indexed": true,
          "internalType": "address",
          "name": "to",
          "type": "address"
        },
        {
          "indexed": true,
          "internalType": "uint256",
          "name": "tokenId",
          "type": "uint256"
        }
      ],
      "name": "Transfer",
      "type": "event"
    },
    {
      "inputs": [],
      "name": "CREATION_LIMIT_GEN0",
      "outputs": [
        {
          "internalType": "uint256",
          "name": "",
          "type": "uint256"
        }
      ],
      "stateMutability": "view",
      "type": "function",
      "constant": true
    },
    {
      "inputs": [],
      "name": "gen0Counter",
      "outputs": [
        {
          "internalType": "uint256",
          "name": "",
          "type": "uint256"
        }
      ],
      "stateMutability": "view",
      "type": "function",
      "constant": true
    },
    {
      "inputs": [],
      "name": "owner",
      "outputs": [
        {
          "internalType": "address",
          "name": "",
          "type": "address"
        }
      ],
      "stateMutability": "view",
      "type": "function",
      "constant": true
    },
    {
      "inputs": [],
      "name": "renounceOwnership",
      "outputs": [],
      "stateMutability": "nonpayable",
      "type": "function"
    },
    {
      "inputs": [],
      "name": "tokenName",
      "outputs": [
        {
          "internalType": "string",
          "name": "",
          "type": "string"
        }
      ],
      "stateMutability": "view",
      "type": "function",
      "constant": true
    },
    {
      "inputs": [],
      "name": "tokenSymbol",
      "outputs": [
        {
          "internalType": "string",
          "name": "",
          "type": "string"
        }
      ],
      "stateMutability": "view",
      "type": "function",
      "constant": true
    },
    {
      "inputs": [
        {
          "internalType": "address",
          "name": "newOwner",
          "type": "address"
        }
      ],
      "name": "transferOwnership",
      "outputs": [],
      "stateMutability": "nonpayable",
      "type": "function"
    },
    {
      "inputs": [
        {
          "internalType": "uint256",
          "name": "_genes",
          "type": "uint256"
        }
      ],
      "name": "createKatGen0",
      "outputs": [
        {
          "internalType": "uint256",
          "name": "",
          "type": "uint256"
        }
      ],
      "stateMutability": "nonpayable",
      "type": "function"
    },
    {
      "inputs": [
        {
          "internalType": "uint256",
          "name": "_id",
          "type": "uint256"
        }
      ],
      "name": "getKat",
      "outputs": [
        {
          "internalType": "uint256",
          "name": "genes",
          "type": "uint256"
        },
        {
          "internalType": "uint256",
          "name": "birthTime",
          "type": "uint256"
        },
        {
          "internalType": "uint256",
          "name": "motherId",
          "type": "uint256"
        },
        {
          "internalType": "uint256",
          "name": "fatherId",
          "type": "uint256"
        },
        {
          "internalType": "uint256",
          "name": "generation",
          "type": "uint256"
        }
      ],
      "stateMutability": "view",
      "type": "function",
      "constant": true
    },
    {
      "inputs": [
        {
          "internalType": "address",
          "name": "owner",
          "type": "address"
        }
      ],
      "name": "balanceOf",
      "outputs": [
        {
          "internalType": "uint256",
          "name": "balance",
          "type": "uint256"
        }
      ],
      "stateMutability": "view",
      "type": "function",
      "constant": true
    },
    {
      "inputs": [],
      "name": "totalSupply",
      "outputs": [
        {
          "internalType": "uint256",
          "name": "total",
          "type": "uint256"
        }
      ],
      "stateMutability": "view",
      "type": "function",
      "constant": true
    },
    {
      "inputs": [],
      "name": "name",
      "outputs": [
        {
          "internalType": "string",
          "name": "_tokenName",
          "type": "string"
        }
      ],
      "stateMutability": "pure",
      "type": "function",
      "constant": true
    },
    {
      "inputs": [],
      "name": "symbol",
      "outputs": [
        {
          "internalType": "string",
          "name": "_tokenSymbol",
          "type": "string"
        }
      ],
      "stateMutability": "pure",
      "type": "function",
      "constant": true
    },
    {
      "inputs": [
        {
          "internalType": "uint256",
          "name": "_tokenId",
          "type": "uint256"
        }
      ],
      "name": "ownerOf",
      "outputs": [
        {
          "internalType": "address",
          "name": "owner",
          "type": "address"
        }
      ],
      "stateMutability": "view",
      "type": "function",
      "constant": true
    },
    {
      "inputs": [
        {
          "internalType": "address",
          "name": "_to",
          "type": "address"
        },
        {
          "internalType": "uint256",
          "name": "_tokenId",
          "type": "uint256"
        }
      ],
      "name": "transfer",
      "outputs": [],
      "stateMutability": "nonpayable",
      "type": "function"
    }
  ],
  "bytecode": "0x608060405234801561001057600080fd5b5061002d61002261003260201b60201c565b61003a60201b60201c565b6100fe565b600033905090565b60008060009054906101000a900473ffffffffffffffffffffffffffffffffffffffff169050816000806101000a81548173ffffffffffffffffffffffffffffffffffffffff021916908373ffffffffffffffffffffffffffffffffffffffff1602179055508173ffffffffffffffffffffffffffffffffffffffff168173ffffffffffffffffffffffffffffffffffffffff167f8be0079c531659141344cd1fd0a4f28419497f9722a3daafe3b4186f6b6457e060405160405180910390a35050565b61119b8061010d6000396000f3fe608060405234801561001057600080fd5b50600436106100f55760003560e01c80637b61c32011610097578063b483433011610066578063b483433014610264578063e31c062114610282578063ef5e94aa146102b6578063f2fde38b146102d4576100f5565b80637b61c320146101ee5780638da5cb5b1461020c57806395d89b411461022a578063a9059cbb14610248576100f5565b80636352211e116100d35780636352211e146101665780636c02a9311461019657806370a08231146101b4578063715018a6146101e4576100f5565b806304a72daa146100fa57806306fdde031461012a57806318160ddd14610148575b600080fd5b610114600480360381019061010f9190610cb7565b6102f0565b6040516101219190610cf3565b60405180910390f35b6101326103ab565b60405161013f9190610da7565b60405180910390f35b6101506103e8565b60405161015d9190610cf3565b60405180910390f35b610180600480360381019061017b9190610cb7565b6103f5565b60405161018d9190610e0a565b60405180910390f35b61019e610432565b6040516101ab9190610da7565b60405180910390f35b6101ce60048036038101906101c99190610e51565b61046b565b6040516101db9190610cf3565b60405180910390f35b6101ec6104b4565b005b6101f661053c565b6040516102039190610da7565b60405180910390f35b610214610575565b6040516102219190610e0a565b60405180910390f35b61023261059e565b60405161023f9190610da7565b60405180910390f35b610262600480360381019061025d9190610e7e565b6105db565b005b61026c61066e565b6040516102799190610cf3565b60405180910390f35b61029c60048036038101906102979190610cb7565b610673565b6040516102ad959493929190610ebe565b60405180910390f35b6102be610729565b6040516102cb9190610cf3565b60405180910390f35b6102ee60048036038101906102e99190610e51565b61072f565b005b60006102fa610826565b73ffffffffffffffffffffffffffffffffffffffff16610318610575565b73ffffffffffffffffffffffffffffffffffffffff161461036e576040517f08c379a000000000000000000000000000000000000000000000000000000000815260040161036590610f5d565b60405180910390fd5b600a6001541061037d57600080fd5b6001600081548092919061039090610fac565b91905055506103a46000806000853361082e565b9050919050565b60606040518060400160405280600a81526020017f43727970746f4b61747300000000000000000000000000000000000000000000815250905090565b6000600280549050905090565b60006004600083815260200190815260200160002060009054906101000a900473ffffffffffffffffffffffffffffffffffffffff169050919050565b6040518060400160405280600a81526020017f43727970746f4b6174730000000000000000000000000000000000000000000081525081565b6000600360008373ffffffffffffffffffffffffffffffffffffffff1673ffffffffffffffffffffffffffffffffffffffff168152602001908152602001600020549050919050565b6104bc610826565b73ffffffffffffffffffffffffffffffffffffffff166104da610575565b73ffffffffffffffffffffffffffffffffffffffff1614610530576040517f08c379a000000000000000000000000000000000000000000000000000000000815260040161052790610f5d565b60405180910390fd5b61053a60006109bb565b565b6040518060400160405280600281526020017f434b00000000000000000000000000000000000000000000000000000000000081525081565b60008060009054906101000a900473ffffffffffffffffffffffffffffffffffffffff16905090565b60606040518060400160405280600281526020017f434b000000000000000000000000000000000000000000000000000000000000815250905090565b600073ffffffffffffffffffffffffffffffffffffffff168273ffffffffffffffffffffffffffffffffffffffff160361061457600080fd5b3073ffffffffffffffffffffffffffffffffffffffff168273ffffffffffffffffffffffffffffffffffffffff160361064c57600080fd5b6106563382610a7f565b61065f57600080fd5b61066a338383610aeb565b5050565b600a81565b600080600080600080600287815481106106905761068f610ff4565b5b90600052602060002090600202019050806000015495508060010160009054906101000a900467ffffffffffffffff1667ffffffffffffffff1694508060010160089054906101000a900463ffffffff1663ffffffff16935080600101600c9054906101000a900463ffffffff1663ffffffff1692508060010160109054906101000a900461ffff1661ffff1691505091939590929450565b60015481565b610737610826565b73ffffffffffffffffffffffffffffffffffffffff16610755610575565b73ffffffffffffffffffffffffffffffffffffffff16146107ab576040517f08c379a00000000000000000000000000000000000000000000000000000000081526004016107a290610f5d565b60405180910390fd5b600073ffffffffffffffffffffffffffffffffffffffff168173ffffffffffffffffffffffffffffffffffffffff160361081a576040517f08c379a000000000000000000000000000000000000000000000000000000000815260040161081190611095565b60405180910390fd5b610823816109bb565b50565b600033905090565b6000806040518060a001604052808581526020014267ffffffffffffffff1681526020018863ffffffff1681526020018763ffffffff1681526020018661ffff16815250905060028190806001815401808255809150506001900390600052602060002090600202016000909190919091506000820151816000015560208201518160010160006101000a81548167ffffffffffffffff021916908367ffffffffffffffff16021790555060408201518160010160086101000a81548163ffffffff021916908363ffffffff160217905550606082015181600101600c6101000a81548163ffffffff021916908363ffffffff16021790555060808201518160010160106101000a81548161ffff021916908361ffff16021790555050506000600160028054905061096091906110b5565b90507f0a5311bd2a6608f08a180df2ee7c5946819a649b204b554bb8e39825b2c50ad584828a8a896040516109999594939291906110e9565b60405180910390a16109ad60008583610aeb565b809250505095945050505050565b60008060009054906101000a900473ffffffffffffffffffffffffffffffffffffffff169050816000806101000a81548173ffffffffffffffffffffffffffffffffffffffff021916908373ffffffffffffffffffffffffffffffffffffffff1602179055508173ffffffffffffffffffffffffffffffffffffffff168173ffffffffffffffffffffffffffffffffffffffff167f8be0079c531659141344cd1fd0a4f28419497f9722a3daafe3b4186f6b6457e060405160405180910390a35050565b60008273ffffffffffffffffffffffffffffffffffffffff166004600084815260200190815260200160002060009054906101000a900473ffffffffffffffffffffffffffffffffffffffff1673ffffffffffffffffffffffffffffffffffffffff1614905092915050565b600360008373ffffffffffffffffffffffffffffffffffffffff1673ffffffffffffffffffffffffffffffffffffffff1681526020019081526020016000206000815480929190610b3b90610fac565b9190505550816004600083815260200190815260200160002060006101000a81548173ffffffffffffffffffffffffffffffffffffffff021916908373ffffffffffffffffffffffffffffffffffffffff160217905550600073ffffffffffffffffffffffffffffffffffffffff168373ffffffffffffffffffffffffffffffffffffffff1614610c1c57600360008473ffffffffffffffffffffffffffffffffffffffff1673ffffffffffffffffffffffffffffffffffffffff1681526020019081526020016000206000815480929190610c169061113c565b91905055505b808273ffffffffffffffffffffffffffffffffffffffff168473ffffffffffffffffffffffffffffffffffffffff167fddf252ad1be2c89b69c2b068fc378daa952ba7f163c4a11628f55a4df523b3ef60405160405180910390a4505050565b600080fd5b6000819050919050565b610c9481610c81565b8114610c9f57600080fd5b50565b600081359050610cb181610c8b565b92915050565b600060208284031215610ccd57610ccc610c7c565b5b6000610cdb84828501610ca2565b91505092915050565b610ced81610c81565b82525050565b6000602082019050610d086000830184610ce4565b92915050565b600081519050919050565b600082825260208201905092915050565b60005b83811015610d48578082015181840152602081019050610d2d565b83811115610d57576000848401525b50505050565b6000601f19601f8301169050919050565b6000610d7982610d0e565b610d838185610d19565b9350610d93818560208601610d2a565b610d9c81610d5d565b840191505092915050565b60006020820190508181036000830152610dc18184610d6e565b905092915050565b600073ffffffffffffffffffffffffffffffffffffffff82169050919050565b6000610df482610dc9565b9050919050565b610e0481610de9565b82525050565b6000602082019050610e1f6000830184610dfb565b92915050565b610e2e81610de9565b8114610e3957600080fd5b50565b600081359050610e4b81610e25565b92915050565b600060208284031215610e6757610e66610c7c565b5b6000610e7584828501610e3c565b91505092915050565b60008060408385031215610e9557610e94610c7c565b5b6000610ea385828601610e3c565b9250506020610eb485828601610ca2565b9150509250929050565b600060a082019050610ed36000830188610ce4565b610ee06020830187610ce4565b610eed6040830186610ce4565b610efa6060830185610ce4565b610f076080830184610ce4565b9695505050505050565b7f4f776e61626c653a2063616c6c6572206973206e6f7420746865206f776e6572600082015250565b6000610f47602083610d19565b9150610f5282610f11565b602082019050919050565b60006020820190508181036000830152610f7681610f3a565b9050919050565b7f4e487b7100000000000000000000000000000000000000000000000000000000600052601160045260246000fd5b6000610fb782610c81565b91507fffffffffffffffffffffffffffffffffffffffffffffffffffffffffffffffff8203610fe957610fe8610f7d565b5b600182019050919050565b7f4e487b7100000000000000000000000000000000000000000000000000000000600052603260045260246000fd5b7f4f776e61626c653a206e6577206f776e657220697320746865207a65726f206160008201527f6464726573730000000000000000000000000000000000000000000000000000602082015250565b600061107f602683610d19565b915061108a82611023565b604082019050919050565b600060208201905081810360008301526110ae81611072565b9050919050565b60006110c082610c81565b91506110cb83610c81565b9250828210156110de576110dd610f7d565b5b828203905092915050565b600060a0820190506110fe6000830188610dfb565b61110b6020830187610ce4565b6111186040830186610ce4565b6111256060830185610ce4565b6111326080830184610ce4565b9695505050505050565b600061114782610c81565b91506000820361115a57611159610f7d565b5b60018203905091905056fea264697066735822122038eb79c2740a039934dd7ed27251bae4915788901b1dc416e31110defd990d4964736f6c634300080d0033",
  "immutableReferences": {},
  "source": "// SPDX-License-Identifier: MIT\npragma solidity 0.8.13;\n\nimport \"./IERC721.sol\";\nimport \"../node_modules/@openzeppelin/contracts/access/Ownable.sol\";\n\ncontract Katcontract is IERC721, Ownable {\n\n    /*\n     * @dev List of Token constants.\n     */\n    string public constant tokenName = \"CryptoKats\";\n    string public constant tokenSymbol = \"CK\";\n    uint256 public constant CREATION_LIMIT_GEN0 = 10;\n\n    /*\n     * @dev Counter to limit to minting of Gen0 NFTs.\n     */\n    uint256 public gen0Counter;\n\n    /*\n     * @dev Event where new CryptoKat is created.\n     */\n    event Birth(\n        address owner, \n        uint256 katId, \n        uint256 motherId, \n        uint256 fatherId, \n        uint256 genes\n        );\n\n    /*\n     * @dev Struct of CryptoKat NFT\n     */\n    struct Kat {\n        uint256 genes;\n        uint64 birthTime;\n        uint32 motherId;\n        uint32 fatherId;\n        uint16 generation;\n    }\n\n    /*\n     * @dev Array of all CryptoKat NFTs.\n     */\n    Kat[] internal kats;\n\n    /*\n     * @dev Mapping from owner address to count of their tokens.\n     */\n    mapping(address => uint256) private ownedTokenCount;\n\n    /*\n     * @dev Mapping from tokenId to the address that owns it.\n     */\n    mapping(uint256 => address) internal idToOwner;\n\n    /*************************************************************/\n\n    /* \n     * @dev Gen0 creation of a CryptoKat NFT.\n     */\n    function createKatGen0(uint256 _genes) public onlyOwner returns (uint256) {\n        require(gen0Counter < CREATION_LIMIT_GEN0);\n\n        gen0Counter++;\n\n        return _createKat(0, 0, 0, _genes, msg.sender);\n    }\n\n    /*\n     * @dev Creation of new Kat.\n     */\n    function _createKat(\n        uint256 _motherId,\n        uint256 _fatherId,\n        uint256 _generation,\n        uint256 _genes,\n        address _owner\n    ) private returns (uint256) {\n        Kat memory _kat = Kat({\n            genes: _genes,\n            birthTime: uint64(block.timestamp),\n            motherId: uint32(_motherId),\n            fatherId: uint32(_fatherId),\n            generation: uint16(_generation)\n        });\n\n        kats.push(_kat);\n        uint256 newKatId = kats.length - 1;\n\n        emit Birth(_owner, newKatId, _motherId, _fatherId, _genes);\n\n        _transfer(address(0), _owner, newKatId);\n\n        return newKatId;\n    }\n\n    /*\n     * @dev Returns properties of CryptoKat NFT by tokenId.\n     */\n    function getKat(uint256 _id) external view returns(\n        uint256 genes,\n        uint256 birthTime,\n        uint256 motherId,\n        uint256 fatherId,\n        uint256 generation\n        ) {\n\n            Kat storage kat = kats[_id];\n\n            genes = uint256(kat.genes);\n            birthTime = uint256(kat.birthTime);\n            motherId = uint256(kat.motherId);\n            fatherId = uint256(kat.fatherId);\n            generation = uint256(kat.generation);\n        }\n\n    /*\n     * @dev Returns the total number of tokens in circulation.\n     */    \n    function balanceOf(address owner) external view returns (uint256 balance){\n        return ownedTokenCount[owner];\n    }\n\n    /**\n     * @dev Returns the count of all existing NFTs.\n     * @return total supply of NFTs.\n     */\n    function totalSupply() external view returns (uint256 total){\n        return kats.length;\n    }\n\n    /*\n     * @dev Returns the name of the token.\n     */\n    function name() external pure returns (string memory _tokenName){\n       _tokenName = tokenName;\n    }\n\n    /*\n     * @dev Returns the symbol of the token.\n     */\n    function symbol() external pure returns (string memory _tokenSymbol){\n        _tokenSymbol = tokenSymbol;\n    }\n\n    /*\n     * @dev Returns the owner of the `tokenId` token.\n     */\n    function ownerOf(uint256 _tokenId) external view returns (address owner){\n        return idToOwner[_tokenId];\n    }\n\n    /* \n     * @dev Transfers `tokenId` token from `msg.sender` to `to`.\n     * Emits a transfer event\n     */\n    function transfer(address _to, uint256 _tokenId) external {\n        require(_to != address(0));\n        require(_to != address(this));\n        require(_owns(msg.sender, _tokenId));\n\n        _transfer(msg.sender, _to, _tokenId);\n    }\n\n    /*\n     * @dev Internal handling of ownedTokenCount from `msg.sender` to `to`.\n     */\n    function _transfer(address _from, address _to, uint256 _tokenId) internal {\n        // Increase token count of recipient \n        ownedTokenCount[_to]++;\n        // set tokenId to recipient\n        idToOwner[_tokenId] = _to;\n\n        if (_from != address(0)) {\n            // decrease token count from sender\n            ownedTokenCount[_from]--;\n        }\n\n        // Emit transfer event\n        emit Transfer(_from, _to, _tokenId);\n    }\n\n    /*\n     * @dev Verifies `msg.sender` owns the NFT.\n     */\n    function _owns(address _claimant, uint256 _tokenId) internal view returns (bool) {\n        return idToOwner[_tokenId] == _claimant;\n    }\n\n}\n",
  "sourcePath": "/Users/alexjohnson/Desktop/projects/moralis_projects/crypto_kitties_clone/contracts/Katcontract.sol",
  "compiler": {
    "name": "solc",
    "version": "0.8.13+commit.abaa5c0e.Emscripten.clang"
  },
  "schemaVersion": "3.4.4",
  "updatedAt": "2022-04-19T19:19:26.458Z",
  "networkType": "ethereum",
  "devdoc": {
    "kind": "dev",
    "methods": {
      "balanceOf(address)": {
        "details": "Returns the number of tokens in ``owner``'s account."
      },
      "owner()": {
        "details": "Returns the address of the current owner."
      },
      "renounceOwnership()": {
        "details": "Leaves the contract without owner. It will not be possible to call `onlyOwner` functions anymore. Can only be called by the current owner. NOTE: Renouncing ownership will leave the contract without an owner, thereby removing any functionality that is only available to the owner."
      },
      "totalSupply()": {
        "details": "Returns the count of all existing NFTs.",
        "returns": {
          "total": "supply of NFTs."
        }
      },
      "transferOwnership(address)": {
        "details": "Transfers ownership of the contract to a new account (`newOwner`). Can only be called by the current owner."
      }
    },
    "version": 1
  },
  "userdoc": {
    "kind": "user",
    "methods": {},
    "version": 1
  }
}