{
  "contractName": "Katcontract",
  "abi": [
    {
      "anonymous": false,
      "inputs": [
        {
          "indexed": true,
          "internalType": "address",
          "name": "owner",
          "type": "address"
        },
        {
          "indexed": true,
          "internalType": "address",
          "name": "approved",
          "type": "address"
        },
        {
          "indexed": true,
          "internalType": "uint256",
          "name": "tokenId",
          "type": "uint256"
        }
      ],
      "name": "Approval",
      "type": "event"
    },
    {
      "anonymous": false,
      "inputs": [
        {
          "indexed": true,
          "internalType": "address",
          "name": "owner",
          "type": "address"
        },
        {
          "indexed": true,
          "internalType": "address",
          "name": "operator",
          "type": "address"
        },
        {
          "indexed": false,
          "internalType": "bool",
          "name": "approved",
          "type": "bool"
        }
      ],
      "name": "ApprovalForAll",
      "type": "event"
    },
    {
      "anonymous": false,
      "inputs": [
        {
          "indexed": false,
          "internalType": "address",
          "name": "owner",
          "type": "address"
        },
        {
          "indexed": false,
          "internalType": "uint256",
          "name": "katId",
          "type": "uint256"
        },
        {
          "indexed": false,
          "internalType": "uint256",
          "name": "motherId",
          "type": "uint256"
        },
        {
          "indexed": false,
          "internalType": "uint256",
          "name": "fatherId",
          "type": "uint256"
        },
        {
          "indexed": false,
          "internalType": "uint256",
          "name": "genes",
          "type": "uint256"
        }
      ],
      "name": "Birth",
      "type": "event"
    },
    {
      "anonymous": false,
      "inputs": [
        {
          "indexed": true,
          "internalType": "address",
          "name": "previousOwner",
          "type": "address"
        },
        {
          "indexed": true,
          "internalType": "address",
          "name": "newOwner",
          "type": "address"
        }
      ],
      "name": "OwnershipTransferred",
      "type": "event"
    },
    {
      "anonymous": false,
      "inputs": [
        {
          "indexed": true,
          "internalType": "address",
          "name": "from",
          "type": "address"
        },
        {
          "indexed": true,
          "internalType": "address",
          "name": "to",
          "type": "address"
        },
        {
          "indexed": true,
          "internalType": "uint256",
          "name": "tokenId",
          "type": "uint256"
        }
      ],
      "name": "Transfer",
      "type": "event"
    },
    {
      "inputs": [],
      "name": "CREATION_LIMIT_GEN0",
      "outputs": [
        {
          "internalType": "uint256",
          "name": "",
          "type": "uint256"
        }
      ],
      "stateMutability": "view",
      "type": "function"
    },
    {
      "inputs": [],
      "name": "gen0Counter",
      "outputs": [
        {
          "internalType": "uint256",
          "name": "",
          "type": "uint256"
        }
      ],
      "stateMutability": "view",
      "type": "function"
    },
    {
      "inputs": [
        {
          "internalType": "uint256",
          "name": "",
          "type": "uint256"
        }
      ],
      "name": "idToApproved",
      "outputs": [
        {
          "internalType": "address",
          "name": "",
          "type": "address"
        }
      ],
      "stateMutability": "view",
      "type": "function"
    },
    {
      "inputs": [],
      "name": "owner",
      "outputs": [
        {
          "internalType": "address",
          "name": "",
          "type": "address"
        }
      ],
      "stateMutability": "view",
      "type": "function"
    },
    {
      "inputs": [],
      "name": "renounceOwnership",
      "outputs": [],
      "stateMutability": "nonpayable",
      "type": "function"
    },
    {
      "inputs": [],
      "name": "tokenName",
      "outputs": [
        {
          "internalType": "string",
          "name": "",
          "type": "string"
        }
      ],
      "stateMutability": "view",
      "type": "function"
    },
    {
      "inputs": [],
      "name": "tokenSymbol",
      "outputs": [
        {
          "internalType": "string",
          "name": "",
          "type": "string"
        }
      ],
      "stateMutability": "view",
      "type": "function"
    },
    {
      "inputs": [
        {
          "internalType": "address",
          "name": "newOwner",
          "type": "address"
        }
      ],
      "name": "transferOwnership",
      "outputs": [],
      "stateMutability": "nonpayable",
      "type": "function"
    },
    {
      "inputs": [
        {
          "internalType": "uint256",
          "name": "_genes",
          "type": "uint256"
        }
      ],
      "name": "createKatGen0",
      "outputs": [
        {
          "internalType": "uint256",
          "name": "",
          "type": "uint256"
        }
      ],
      "stateMutability": "nonpayable",
      "type": "function"
    },
    {
      "inputs": [
        {
          "internalType": "uint256",
          "name": "_id",
          "type": "uint256"
        }
      ],
      "name": "getKat",
      "outputs": [
        {
          "internalType": "uint256",
          "name": "genes",
          "type": "uint256"
        },
        {
          "internalType": "uint256",
          "name": "birthTime",
          "type": "uint256"
        },
        {
          "internalType": "uint256",
          "name": "motherId",
          "type": "uint256"
        },
        {
          "internalType": "uint256",
          "name": "fatherId",
          "type": "uint256"
        },
        {
          "internalType": "uint256",
          "name": "generation",
          "type": "uint256"
        }
      ],
      "stateMutability": "view",
      "type": "function"
    },
    {
      "inputs": [
        {
          "internalType": "address",
          "name": "owner",
          "type": "address"
        }
      ],
      "name": "balanceOf",
      "outputs": [
        {
          "internalType": "uint256",
          "name": "balance",
          "type": "uint256"
        }
      ],
      "stateMutability": "view",
      "type": "function"
    },
    {
      "inputs": [],
      "name": "totalSupply",
      "outputs": [
        {
          "internalType": "uint256",
          "name": "total",
          "type": "uint256"
        }
      ],
      "stateMutability": "view",
      "type": "function"
    },
    {
      "inputs": [],
      "name": "name",
      "outputs": [
        {
          "internalType": "string",
          "name": "_tokenName",
          "type": "string"
        }
      ],
      "stateMutability": "pure",
      "type": "function"
    },
    {
      "inputs": [],
      "name": "symbol",
      "outputs": [
        {
          "internalType": "string",
          "name": "_tokenSymbol",
          "type": "string"
        }
      ],
      "stateMutability": "pure",
      "type": "function"
    },
    {
      "inputs": [
        {
          "internalType": "uint256",
          "name": "_tokenId",
          "type": "uint256"
        }
      ],
      "name": "ownerOf",
      "outputs": [
        {
          "internalType": "address",
          "name": "owner",
          "type": "address"
        }
      ],
      "stateMutability": "view",
      "type": "function"
    },
    {
      "inputs": [
        {
          "internalType": "address",
          "name": "_to",
          "type": "address"
        },
        {
          "internalType": "uint256",
          "name": "_tokenId",
          "type": "uint256"
        }
      ],
      "name": "transfer",
      "outputs": [],
      "stateMutability": "nonpayable",
      "type": "function"
    },
    {
      "inputs": [
        {
          "internalType": "address",
          "name": "_approved",
          "type": "address"
        },
        {
          "internalType": "uint256",
          "name": "_tokenId",
          "type": "uint256"
        }
      ],
      "name": "approve",
      "outputs": [],
      "stateMutability": "nonpayable",
      "type": "function"
    },
    {
      "inputs": [
        {
          "internalType": "address",
          "name": "_operator",
          "type": "address"
        },
        {
          "internalType": "bool",
          "name": "_approved",
          "type": "bool"
        }
      ],
      "name": "setApprovalForAll",
      "outputs": [],
      "stateMutability": "nonpayable",
      "type": "function"
    },
    {
      "inputs": [
        {
          "internalType": "uint256",
          "name": "_tokenId",
          "type": "uint256"
        }
      ],
      "name": "getApproved",
      "outputs": [
        {
          "internalType": "address",
          "name": "",
          "type": "address"
        }
      ],
      "stateMutability": "view",
      "type": "function"
    },
    {
      "inputs": [
        {
          "internalType": "address",
          "name": "_owner",
          "type": "address"
        },
        {
          "internalType": "address",
          "name": "_operator",
          "type": "address"
        }
      ],
      "name": "isApprovedForAll",
      "outputs": [
        {
          "internalType": "bool",
          "name": "",
          "type": "bool"
        }
      ],
      "stateMutability": "view",
      "type": "function"
    },
    {
      "inputs": [
        {
          "internalType": "address",
          "name": "_from",
          "type": "address"
        },
        {
          "internalType": "address",
          "name": "_to",
          "type": "address"
        },
        {
          "internalType": "uint256",
          "name": "_tokenId",
          "type": "uint256"
        }
      ],
      "name": "transferFrom",
      "outputs": [],
      "stateMutability": "nonpayable",
      "type": "function"
    },
    {
      "inputs": [
        {
          "internalType": "address",
          "name": "_from",
          "type": "address"
        },
        {
          "internalType": "address",
          "name": "_to",
          "type": "address"
        },
        {
          "internalType": "uint256",
          "name": "_tokenId",
          "type": "uint256"
        }
      ],
      "name": "safeTransferFrom",
      "outputs": [],
      "stateMutability": "nonpayable",
      "type": "function"
    },
    {
      "inputs": [
        {
          "internalType": "address",
          "name": "_from",
          "type": "address"
        },
        {
          "internalType": "address",
          "name": "_to",
          "type": "address"
        },
        {
          "internalType": "uint256",
          "name": "_tokenId",
          "type": "uint256"
        },
        {
          "internalType": "bytes",
          "name": "_data",
          "type": "bytes"
        }
      ],
      "name": "safeTransferFrom",
      "outputs": [],
      "stateMutability": "nonpayable",
      "type": "function"
    }
  ],
  "bytecode": "0x608060405234801561001057600080fd5b5061002d61002261003260201b60201c565b61003a60201b60201c565b6100fe565b600033905090565b60008060009054906101000a900473ffffffffffffffffffffffffffffffffffffffff169050816000806101000a81548173ffffffffffffffffffffffffffffffffffffffff021916908373ffffffffffffffffffffffffffffffffffffffff1602179055508173ffffffffffffffffffffffffffffffffffffffff168173ffffffffffffffffffffffffffffffffffffffff167f8be0079c531659141344cd1fd0a4f28419497f9722a3daafe3b4186f6b6457e060405160405180910390a35050565b611ec88061010d6000396000f3fe608060405234801561001057600080fd5b506004361061014d5760003560e01c80637b61c320116100c3578063b48343301161007c578063b48343301461038c578063b88d4fde146103aa578063e31c0621146103c6578063e985e9c5146103fa578063ef5e94aa1461042a578063f2fde38b146104485761014d565b80637b61c320146102ca5780638da5cb5b146102e857806395d89b4114610306578063a22cb46514610324578063a9059cbb14610340578063b088d74b1461035c5761014d565b806323b872dd1161011557806323b872dd1461020a57806342842e0e146102265780636352211e146102425780636c02a9311461027257806370a0823114610290578063715018a6146102c05761014d565b806304a72daa1461015257806306fdde0314610182578063081812fc146101a0578063095ea7b3146101d057806318160ddd146101ec575b600080fd5b61016c60048036038101906101679190611630565b610464565b604051610179919061166c565b60405180910390f35b61018a61051f565b6040516101979190611720565b60405180910390f35b6101ba60048036038101906101b59190611630565b61055c565b6040516101c79190611783565b60405180910390f35b6101ea60048036038101906101e591906117ca565b6105aa565b005b6101f4610702565b604051610201919061166c565b60405180910390f35b610224600480360381019061021f919061180a565b61070f565b005b610240600480360381019061023b919061180a565b6107d6565b005b61025c60048036038101906102579190611630565b6108ad565b6040516102699190611783565b60405180910390f35b61027a6108ea565b6040516102879190611720565b60405180910390f35b6102aa60048036038101906102a5919061185d565b610923565b6040516102b7919061166c565b60405180910390f35b6102c861096c565b005b6102d26109f4565b6040516102df9190611720565b60405180910390f35b6102f0610a2d565b6040516102fd9190611783565b60405180910390f35b61030e610a56565b60405161031b9190611720565b60405180910390f35b61033e600480360381019061033991906118c2565b610a93565b005b61035a600480360381019061035591906117ca565b610b90565b005b61037660048036038101906103719190611630565b610c23565b6040516103839190611783565b60405180910390f35b610394610c56565b6040516103a1919061166c565b60405180910390f35b6103c460048036038101906103bf9190611967565b610c5b565b005b6103e060048036038101906103db9190611630565b610d69565b6040516103f19594939291906119ef565b60405180910390f35b610414600480360381019061040f9190611a42565b610e1f565b6040516104219190611a91565b60405180910390f35b610432610eb3565b60405161043f919061166c565b60405180910390f35b610462600480360381019061045d919061185d565b610eb9565b005b600061046e610fb0565b73ffffffffffffffffffffffffffffffffffffffff1661048c610a2d565b73ffffffffffffffffffffffffffffffffffffffff16146104e2576040517f08c379a00000000000000000000000000000000000000000000000000000000081526004016104d990611af8565b60405180910390fd5b600a600154106104f157600080fd5b6001600081548092919061050490611b47565b919050555061051860008060008533610fb8565b9050919050565b60606040518060400160405280600a81526020017f43727970746f4b61747300000000000000000000000000000000000000000000815250905090565b6000600280549050821061056f57600080fd5b6005600083815260200190815260200160002060009054906101000a900473ffffffffffffffffffffffffffffffffffffffff169050919050565b60006004600083815260200190815260200160002060009054906101000a900473ffffffffffffffffffffffffffffffffffffffff1690508073ffffffffffffffffffffffffffffffffffffffff168373ffffffffffffffffffffffffffffffffffffffff1603610650576040517f08c379a000000000000000000000000000000000000000000000000000000000815260040161064790611bdb565b60405180910390fd5b826005600084815260200190815260200160002060006101000a81548173ffffffffffffffffffffffffffffffffffffffff021916908373ffffffffffffffffffffffffffffffffffffffff160217905550818373ffffffffffffffffffffffffffffffffffffffff168273ffffffffffffffffffffffffffffffffffffffff167f8c5be1e5ebec7d5bd14f71427d1e84f3dd0314c0f7b2291e5b200ac8c7c3b92560405160405180910390a4505050565b6000600280549050905090565b600073ffffffffffffffffffffffffffffffffffffffff168273ffffffffffffffffffffffffffffffffffffffff160361074857600080fd5b8273ffffffffffffffffffffffffffffffffffffffff163373ffffffffffffffffffffffffffffffffffffffff16148061078857506107873382611145565b5b8061079957506107988333610e1f565b5b6107a257600080fd5b6107ac83826111b1565b6107b557600080fd5b60028054905081106107c657600080fd5b6107d183838361121d565b505050565b600073ffffffffffffffffffffffffffffffffffffffff168273ffffffffffffffffffffffffffffffffffffffff160361080f57600080fd5b8273ffffffffffffffffffffffffffffffffffffffff163373ffffffffffffffffffffffffffffffffffffffff16148061084f575061084e3382611145565b5b80610860575061085f8333610e1f565b5b61086957600080fd5b61087383826111b1565b61087c57600080fd5b600280549050811061088d57600080fd5b6108a8838383604051806020016040528060008152506113e4565b505050565b60006004600083815260200190815260200160002060009054906101000a900473ffffffffffffffffffffffffffffffffffffffff169050919050565b6040518060400160405280600a81526020017f43727970746f4b6174730000000000000000000000000000000000000000000081525081565b6000600360008373ffffffffffffffffffffffffffffffffffffffff1673ffffffffffffffffffffffffffffffffffffffff168152602001908152602001600020549050919050565b610974610fb0565b73ffffffffffffffffffffffffffffffffffffffff16610992610a2d565b73ffffffffffffffffffffffffffffffffffffffff16146109e8576040517f08c379a00000000000000000000000000000000000000000000000000000000081526004016109df90611af8565b60405180910390fd5b6109f2600061140a565b565b6040518060400160405280600281526020017f434b00000000000000000000000000000000000000000000000000000000000081525081565b60008060009054906101000a900473ffffffffffffffffffffffffffffffffffffffff16905090565b60606040518060400160405280600281526020017f434b000000000000000000000000000000000000000000000000000000000000815250905090565b80600660003373ffffffffffffffffffffffffffffffffffffffff1673ffffffffffffffffffffffffffffffffffffffff16815260200190815260200160002060008473ffffffffffffffffffffffffffffffffffffffff1673ffffffffffffffffffffffffffffffffffffffff16815260200190815260200160002060006101000a81548160ff0219169083151502179055508173ffffffffffffffffffffffffffffffffffffffff163373ffffffffffffffffffffffffffffffffffffffff167f17307eab39ab6107e8899845ad3d59bd9653f200f220920489ca2b5937696c3183604051610b849190611a91565b60405180910390a35050565b600073ffffffffffffffffffffffffffffffffffffffff168273ffffffffffffffffffffffffffffffffffffffff1603610bc957600080fd5b3073ffffffffffffffffffffffffffffffffffffffff168273ffffffffffffffffffffffffffffffffffffffff1603610c0157600080fd5b610c0b33826111b1565b610c1457600080fd5b610c1f33838361121d565b5050565b60056020528060005260406000206000915054906101000a900473ffffffffffffffffffffffffffffffffffffffff1681565b600a81565b600073ffffffffffffffffffffffffffffffffffffffff168473ffffffffffffffffffffffffffffffffffffffff1603610c9457600080fd5b8473ffffffffffffffffffffffffffffffffffffffff163373ffffffffffffffffffffffffffffffffffffffff161480610cd45750610cd33384611145565b5b80610ce55750610ce48533610e1f565b5b610cee57600080fd5b610cf885846111b1565b610d0157600080fd5b6002805490508310610d1257600080fd5b610d6285858585858080601f016020809104026020016040519081016040528093929190818152602001838380828437600081840152601f19601f820116905080830192505050505050506113e4565b5050505050565b60008060008060008060028781548110610d8657610d85611bfb565b5b90600052602060002090600202019050806000015495508060010160009054906101000a900467ffffffffffffffff1667ffffffffffffffff1694508060010160089054906101000a900463ffffffff1663ffffffff16935080600101600c9054906101000a900463ffffffff1663ffffffff1692508060010160109054906101000a900461ffff1661ffff1691505091939590929450565b6000600660008473ffffffffffffffffffffffffffffffffffffffff1673ffffffffffffffffffffffffffffffffffffffff16815260200190815260200160002060008373ffffffffffffffffffffffffffffffffffffffff1673ffffffffffffffffffffffffffffffffffffffff16815260200190815260200160002060009054906101000a900460ff16905092915050565b60015481565b610ec1610fb0565b73ffffffffffffffffffffffffffffffffffffffff16610edf610a2d565b73ffffffffffffffffffffffffffffffffffffffff1614610f35576040517f08c379a0000000000000000000000000000000000000000000000000000000008152600401610f2c90611af8565b60405180910390fd5b600073ffffffffffffffffffffffffffffffffffffffff168173ffffffffffffffffffffffffffffffffffffffff1603610fa4576040517f08c379a0000000000000000000000000000000000000000000000000000000008152600401610f9b90611c9c565b60405180910390fd5b610fad8161140a565b50565b600033905090565b6000806040518060a001604052808581526020014267ffffffffffffffff1681526020018863ffffffff1681526020018763ffffffff1681526020018661ffff16815250905060028190806001815401808255809150506001900390600052602060002090600202016000909190919091506000820151816000015560208201518160010160006101000a81548167ffffffffffffffff021916908367ffffffffffffffff16021790555060408201518160010160086101000a81548163ffffffff021916908363ffffffff160217905550606082015181600101600c6101000a81548163ffffffff021916908363ffffffff16021790555060808201518160010160106101000a81548161ffff021916908361ffff1602179055505050600060016002805490506110ea9190611cbc565b90507f0a5311bd2a6608f08a180df2ee7c5946819a649b204b554bb8e39825b2c50ad584828a8a89604051611123959493929190611cf0565b60405180910390a16111376000858361121d565b809250505095945050505050565b60008273ffffffffffffffffffffffffffffffffffffffff166005600084815260200190815260200160002060009054906101000a900473ffffffffffffffffffffffffffffffffffffffff1673ffffffffffffffffffffffffffffffffffffffff1614905092915050565b60008273ffffffffffffffffffffffffffffffffffffffff166004600084815260200190815260200160002060009054906101000a900473ffffffffffffffffffffffffffffffffffffffff1673ffffffffffffffffffffffffffffffffffffffff1614905092915050565b600360008373ffffffffffffffffffffffffffffffffffffffff1673ffffffffffffffffffffffffffffffffffffffff168152602001908152602001600020600081548092919061126d90611b47565b9190505550816004600083815260200190815260200160002060006101000a81548173ffffffffffffffffffffffffffffffffffffffff021916908373ffffffffffffffffffffffffffffffffffffffff160217905550600073ffffffffffffffffffffffffffffffffffffffff168373ffffffffffffffffffffffffffffffffffffffff161461138457600360008473ffffffffffffffffffffffffffffffffffffffff1673ffffffffffffffffffffffffffffffffffffffff168152602001908152602001600020600081548092919061134890611d43565b91905055506005600082815260200190815260200160002060006101000a81549073ffffffffffffffffffffffffffffffffffffffff02191690555b808273ffffffffffffffffffffffffffffffffffffffff168473ffffffffffffffffffffffffffffffffffffffff167fddf252ad1be2c89b69c2b068fc378daa952ba7f163c4a11628f55a4df523b3ef60405160405180910390a4505050565b6113ef84848461121d565b6113fb848484846114ce565b61140457600080fd5b50505050565b60008060009054906101000a900473ffffffffffffffffffffffffffffffffffffffff169050816000806101000a81548173ffffffffffffffffffffffffffffffffffffffff021916908373ffffffffffffffffffffffffffffffffffffffff1602179055508173ffffffffffffffffffffffffffffffffffffffff168173ffffffffffffffffffffffffffffffffffffffff167f8be0079c531659141344cd1fd0a4f28419497f9722a3daafe3b4186f6b6457e060405160405180910390a35050565b60006114d9846115d7565b6114e657600190506115cf565b60008473ffffffffffffffffffffffffffffffffffffffff1663150b7a02338887876040518563ffffffff1660e01b81526004016115279493929190611dc1565b602060405180830381865afa158015611544573d6000803e3d6000fd5b505050506040513d601f19601f820116820180604052508101906115689190611e65565b90507f150b7a023d4804d13e8c85fb27262cb750cf6ba9f9dd3bb30d90f482ceeb4b1f7bffffffffffffffffffffffffffffffffffffffffffffffffffffffff1916817bffffffffffffffffffffffffffffffffffffffffffffffffffffffff1916149150505b949350505050565b600080823b905060008163ffffffff1611915050919050565b600080fd5b600080fd5b6000819050919050565b61160d816115fa565b811461161857600080fd5b50565b60008135905061162a81611604565b92915050565b600060208284031215611646576116456115f0565b5b60006116548482850161161b565b91505092915050565b611666816115fa565b82525050565b6000602082019050611681600083018461165d565b92915050565b600081519050919050565b600082825260208201905092915050565b60005b838110156116c15780820151818401526020810190506116a6565b838111156116d0576000848401525b50505050565b6000601f19601f8301169050919050565b60006116f282611687565b6116fc8185611692565b935061170c8185602086016116a3565b611715816116d6565b840191505092915050565b6000602082019050818103600083015261173a81846116e7565b905092915050565b600073ffffffffffffffffffffffffffffffffffffffff82169050919050565b600061176d82611742565b9050919050565b61177d81611762565b82525050565b60006020820190506117986000830184611774565b92915050565b6117a781611762565b81146117b257600080fd5b50565b6000813590506117c48161179e565b92915050565b600080604083850312156117e1576117e06115f0565b5b60006117ef858286016117b5565b92505060206118008582860161161b565b9150509250929050565b600080600060608486031215611823576118226115f0565b5b6000611831868287016117b5565b9350506020611842868287016117b5565b92505060406118538682870161161b565b9150509250925092565b600060208284031215611873576118726115f0565b5b6000611881848285016117b5565b91505092915050565b60008115159050919050565b61189f8161188a565b81146118aa57600080fd5b50565b6000813590506118bc81611896565b92915050565b600080604083850312156118d9576118d86115f0565b5b60006118e7858286016117b5565b92505060206118f8858286016118ad565b9150509250929050565b600080fd5b600080fd5b600080fd5b60008083601f84011261192757611926611902565b5b8235905067ffffffffffffffff81111561194457611943611907565b5b6020830191508360018202830111156119605761195f61190c565b5b9250929050565b600080600080600060808688031215611983576119826115f0565b5b6000611991888289016117b5565b95505060206119a2888289016117b5565b94505060406119b38882890161161b565b935050606086013567ffffffffffffffff8111156119d4576119d36115f5565b5b6119e088828901611911565b92509250509295509295909350565b600060a082019050611a04600083018861165d565b611a11602083018761165d565b611a1e604083018661165d565b611a2b606083018561165d565b611a38608083018461165d565b9695505050505050565b60008060408385031215611a5957611a586115f0565b5b6000611a67858286016117b5565b9250506020611a78858286016117b5565b9150509250929050565b611a8b8161188a565b82525050565b6000602082019050611aa66000830184611a82565b92915050565b7f4f776e61626c653a2063616c6c6572206973206e6f7420746865206f776e6572600082015250565b6000611ae2602083611692565b9150611aed82611aac565b602082019050919050565b60006020820190508181036000830152611b1181611ad5565b9050919050565b7f4e487b7100000000000000000000000000000000000000000000000000000000600052601160045260246000fd5b6000611b52826115fa565b91507fffffffffffffffffffffffffffffffffffffffffffffffffffffffffffffffff8203611b8457611b83611b18565b5b600182019050919050565b7f4f776e657220697320616c726561647920617070726f76656400000000000000600082015250565b6000611bc5601983611692565b9150611bd082611b8f565b602082019050919050565b60006020820190508181036000830152611bf481611bb8565b9050919050565b7f4e487b7100000000000000000000000000000000000000000000000000000000600052603260045260246000fd5b7f4f776e61626c653a206e6577206f776e657220697320746865207a65726f206160008201527f6464726573730000000000000000000000000000000000000000000000000000602082015250565b6000611c86602683611692565b9150611c9182611c2a565b604082019050919050565b60006020820190508181036000830152611cb581611c79565b9050919050565b6000611cc7826115fa565b9150611cd2836115fa565b925082821015611ce557611ce4611b18565b5b828203905092915050565b600060a082019050611d056000830188611774565b611d12602083018761165d565b611d1f604083018661165d565b611d2c606083018561165d565b611d39608083018461165d565b9695505050505050565b6000611d4e826115fa565b915060008203611d6157611d60611b18565b5b600182039050919050565b600081519050919050565b600082825260208201905092915050565b6000611d9382611d6c565b611d9d8185611d77565b9350611dad8185602086016116a3565b611db6816116d6565b840191505092915050565b6000608082019050611dd66000830187611774565b611de36020830186611774565b611df0604083018561165d565b8181036060830152611e028184611d88565b905095945050505050565b60007fffffffff0000000000000000000000000000000000000000000000000000000082169050919050565b611e4281611e0d565b8114611e4d57600080fd5b50565b600081519050611e5f81611e39565b92915050565b600060208284031215611e7b57611e7a6115f0565b5b6000611e8984828501611e50565b9150509291505056fea26469706673582212205e75ed971c6fa13d1aa163b77456165de204dc6aa6fc0e7c429a781b5f232b9a64736f6c634300080d0033",
  "immutableReferences": {},
  "source": "// SPDX-License-Identifier: MIT\npragma solidity 0.8.13;\n\nimport \"./IERC721.sol\";\nimport \"./IERC721Receiver.sol\";\nimport \"../node_modules/@openzeppelin/contracts/access/Ownable.sol\";\n\ncontract Katcontract is IERC721, Ownable {\n\n    /*\n     * @dev List of Token constants.\n     */\n    string public constant tokenName = \"CryptoKats\";\n    string public constant tokenSymbol = \"CK\";\n    uint256 public constant CREATION_LIMIT_GEN0 = 10;\n    bytes4 internal constant MAGIC_ERC721_RECEIVED = bytes4(keccak256(\"onERC721Received(address,address,uint256,bytes)\"));\n\n    /*\n     * @dev Counter to limit to minting of Gen0 NFTs.\n     */\n    uint256 public gen0Counter;\n\n    /*\n     * @dev Event where new CryptoKat is created.\n     */\n    event Birth(\n        address owner, \n        uint256 katId, \n        uint256 motherId, \n        uint256 fatherId, \n        uint256 genes\n        );\n\n    /*\n     * @dev Struct of CryptoKat NFT\n     */\n    struct Kat {\n        uint256 genes;\n        uint64 birthTime;\n        uint32 motherId;\n        uint32 fatherId;\n        uint16 generation;\n    }\n\n    /*\n     * @dev Array of all CryptoKat NFTs.\n     */\n    Kat[] internal kats;\n\n    /*\n     * @dev Mapping from owner address to count of their tokens.\n     */\n    mapping(address => uint256) private ownedTokenCount;\n\n    /*\n     * @dev Mapping from tokenId to the address that owns it.\n     */\n    mapping(uint256 => address) internal idToOwner;\n\n    /*\n     * @dev Mapping of approved addresses to transfer tokens.\n     */\n    mapping (uint256 => address) public idToApproved;\n\n    /*\n     * @dev Mapping from owner address to mapping of operator addresses.\n     */\n    mapping (address => mapping (address => bool)) private _operatorApprovals;\n\n    /*************************************************************/\n\n    /* \n     * @dev Gen0 creation of a CryptoKat NFT.\n     */\n    function createKatGen0(uint256 _genes) public onlyOwner returns (uint256) {\n        require(gen0Counter < CREATION_LIMIT_GEN0);\n\n        gen0Counter++;\n\n        return _createKat(0, 0, 0, _genes, msg.sender);\n    }\n\n    /*\n     * @dev Creation of new Kat.\n     */\n    function _createKat(\n        uint256 _motherId,\n        uint256 _fatherId,\n        uint256 _generation,\n        uint256 _genes,\n        address _owner\n    ) private returns (uint256) {\n        Kat memory _kat = Kat({\n            genes: _genes,\n            birthTime: uint64(block.timestamp),\n            motherId: uint32(_motherId),\n            fatherId: uint32(_fatherId),\n            generation: uint16(_generation)\n        });\n\n        kats.push(_kat);\n        uint256 newKatId = kats.length - 1;\n\n        emit Birth(_owner, newKatId, _motherId, _fatherId, _genes);\n\n        _transfer(address(0), _owner, newKatId);\n\n        return newKatId;\n    }\n\n    /*\n     * @dev Returns properties of CryptoKat NFT by tokenId.\n     */\n    function getKat(uint256 _id) external view returns(\n        uint256 genes,\n        uint256 birthTime,\n        uint256 motherId,\n        uint256 fatherId,\n        uint256 generation\n        ) {\n\n            Kat storage kat = kats[_id];\n\n            genes = uint256(kat.genes);\n            birthTime = uint256(kat.birthTime);\n            motherId = uint256(kat.motherId);\n            fatherId = uint256(kat.fatherId);\n            generation = uint256(kat.generation);\n        }\n\n    /*\n     * @dev Returns the total number of tokens in circulation.\n     */    \n    function balanceOf(address owner) external view returns (uint256 balance){\n        return ownedTokenCount[owner];\n    }\n\n    /**\n     * @dev Returns the count of all existing NFTs.\n     * @return total supply of NFTs.\n     */\n    function totalSupply() external view returns (uint256 total){\n        return kats.length;\n    }\n\n    /*\n     * @dev Returns the name of the token.\n     */\n    function name() external pure returns (string memory _tokenName){\n       _tokenName = tokenName;\n    }\n\n    /*\n     * @dev Returns the symbol of the token.\n     */\n    function symbol() external pure returns (string memory _tokenSymbol){\n        _tokenSymbol = tokenSymbol;\n    }\n\n    /*\n     * @dev Returns the owner of the `tokenId` token.\n     */\n    function ownerOf(uint256 _tokenId) external view returns (address owner){\n        return idToOwner[_tokenId];\n    }\n\n    /* \n     * @dev Transfers `tokenId` token from `msg.sender` to `to`.\n     * Emits a transfer event\n     */\n    function transfer(address _to, uint256 _tokenId) external {\n        require(_to != address(0));\n        require(_to != address(this));\n        require(_owns(msg.sender, _tokenId));\n\n        _transfer(msg.sender, _to, _tokenId);\n    }\n\n    /*\n     * @dev Internal handling of ownedTokenCount from `msg.sender` to `to`.\n     */\n    function _transfer(address _from, address _to, uint256 _tokenId) internal {\n        // Increase token count of recipient \n        ownedTokenCount[_to]++;\n        // set tokenId to recipient\n        idToOwner[_tokenId] = _to;\n\n        if (_from != address(0)) {\n            // decrease token count from sender\n            ownedTokenCount[_from]--;\n            delete idToApproved[_tokenId];\n        }\n\n        // Emit transfer event\n        emit Transfer(_from, _to, _tokenId);\n    }\n\n    /**\n     * @notice Change or reaffirm the approved address for an NFT\n     * @dev The zero address indicates there is no approved address.\n     * Throws unless `msg.sender` is the current NFT owner, or an authorized\n     * operator of the current owner.\n     * @param _approved The new approved NFT controller\n     * @param _tokenId The NFT to approve\n     */\n    function approve(address _approved, uint256 _tokenId) external {\n        address owner = idToOwner[_tokenId];\n        require(_approved != owner, \"Owner is already approved\");\n\n        idToApproved[_tokenId] = _approved;\n        emit Approval(owner, _approved, _tokenId);\n    }\n\n    /**\n     * @notice Enable or disable approval for a third party (\"operator\") to manage\n     * all of `msg.sender`'s assets\n     * @dev Emits the ApprovalForAll event. The contract MUST allow\n     * multiple operators per owner.\n     * @param _operator Address to add to the set of authorized operators\n     * @param _approved True if the operator is approved, false to revoke approval\n     */\n    function setApprovalForAll(address _operator, bool _approved) external {\n        _operatorApprovals[msg.sender][_operator] = _approved;\n\n        emit ApprovalForAll(msg.sender, _operator, _approved);\n    }\n\n    /**\n     * @notice Get the approved address for a single NFT\n     * @dev Throws if `_tokenId` is not a valid NFT.\n     * @param _tokenId The NFT to find the approved address for\n     * @return The approved address for this NFT, or the zero address if there is none\n     */\n    function getApproved(uint256 _tokenId) external view returns (address) {\n        require(_tokenId < kats.length); // Token must exist\n\n        return idToApproved[_tokenId];\n    }\n\n    /**\n     * @notice Query if an address is an authorized operator for another address\n     * @param _owner The address that owns the NFTs\n     * @param _operator The address that acts on behalf of the owner\n     * @return True if `_operator` is an approved operator for `_owner`, false otherwise\n     */\n    function isApprovedForAll(address _owner, address _operator) public view returns (bool) {\n        return _operatorApprovals[_owner][_operator];\n    }\n\n    /**\n     * @notice Transfer ownership of an NFT -- THE CALLER IS RESPONSIBLE\n     *  TO CONFIRM THAT `_to` IS CAPABLE OF RECEIVING NFTS OR ELSE\n     *  THEY MAY BE PERMANENTLY LOST\n     * @dev Throws unless `msg.sender` is the current owner, an authorized\n     *  operator, or the approved address for this NFT. Throws if `_from` is\n     *  not the current owner. Throws if `_to` is the zero address. Throws if\n     *  `_tokenId` is not a valid NFT.\n     * @param _from The current owner of the NFT\n     * @param _to The new owner\n     * @param _tokenId The NFT to transfer\n     */\n    function transferFrom(address _from, address _to, uint256 _tokenId) external {\n        require(_to != address(0));\n        require(msg.sender == _from || _approvedFor(msg.sender, _tokenId) || isApprovedForAll(_from, msg.sender));\n        require(_owns(_from, _tokenId));\n        require(_tokenId < kats.length);\n\n        _transfer(_from, _to, _tokenId);\n    }\n\n    function _safeTransfer(address _from, address _to, uint256 _tokenId, bytes memory _data) internal {\n        _transfer(_from, _to, _tokenId);\n        require(_checkERC721Support(_from, _to, _tokenId, _data) );\n    }\n\n    /**\n     * @notice Transfers the ownership of an NFT from one address to another address\n     * @dev Throws unless `msg.sender` is the current owner, an authorized\n     *  operator, or the approved address for this NFT. Throws if `_from` is\n     *  not the current owner. Throws if `_to` is the zero address. Throws if\n     *  `_tokenId` is not a valid NFT. When transfer is complete, this function\n     *  checks if `_to` is a smart contract (code size > 0). If so, it calls\n     *  `onERC721Received` on `_to` and throws if the return value is not\n     *  `bytes4(keccak256(\"onERC721Received(address,address,uint256,bytes)\"))`.\n     * @param _from The current owner of the NFT\n     * @param _to The new owner\n     * @param _tokenId The NFT to transfer\n     * @param _data Additional data with no specified format, sent in call to `_to`\n     */\n    function safeTransferFrom(address _from, address _to, uint256 _tokenId, bytes calldata _data) external {\n        require(_to != address(0));\n        require(msg.sender == _from || _approvedFor(msg.sender, _tokenId) || isApprovedForAll(_from, msg.sender));\n        require(_owns(_from, _tokenId));\n        require(_tokenId < kats.length);\n\n        _safeTransfer(_from, _to, _tokenId, _data);\n    }\n\n    /**\n     * @notice Transfers the ownership of an NFT from one address to another address\n     * @dev This works identically to the other function with an extra data parameter,\n     *  except this function just sets data to \"\".\n     * @param _from The current owner of the NFT\n     * @param _to The new owner\n     * @param _tokenId The NFT to transfer\n     */\n    function safeTransferFrom(address _from, address _to, uint256 _tokenId) external {\n        require(_to != address(0));\n        require(msg.sender == _from || _approvedFor(msg.sender, _tokenId) || isApprovedForAll(_from, msg.sender));\n        require(_owns(_from, _tokenId));\n        require(_tokenId < kats.length);\n\n        _safeTransfer(_from, _to, _tokenId, \"\");\n    }\n\n    /*\n     * @dev Verifies `msg.sender` owns the NFT.\n     */\n    function _owns(address _claimant, uint256 _tokenId) internal view returns (bool) {\n        return idToOwner[_tokenId] == _claimant;\n    }\n\n    /*\n     * @dev Set or reaffirm the approved address for an NFT.\n     */\n    function _approve(uint256 _tokenId, address _approved) internal {\n        idToApproved[_tokenId] = _approved;\n    }\n\n    /*\n     * @dev Verifies approved address is approved for NFT.\n     */\n    function _approvedFor(address _claimant, uint256 _tokenId) internal view returns (bool) {\n        return idToApproved[_tokenId] == _claimant;\n    }\n\n    /*\n     * @dev Checks _to address is an approved ERC721 token and can handle payload.\n     */\n    function _checkERC721Support(address _from, address _to, uint256 _tokenId, bytes memory _data) internal view returns (bool) {\n        if (!_isContract(_to)) {\n            return true;\n        }\n\n        bytes4 returnData = IERC721Receiver(_to).onERC721Received(msg.sender, _from, _tokenId, _data);\n        return returnData == MAGIC_ERC721_RECEIVED;\n    }\n\n    /*\n     * @dev Returns size of data in _to address.\n     */\n    function _isContract(address _to) view internal returns (bool) {\n        uint32 size;\n        assembly{\n            // get the size of the code that is in the address.\n            size := extcodesize(_to)\n        }\n        return size > 0;\n\n    }\n\n}\n",
  "sourcePath": "/Users/alexjohnson/Desktop/projects/moralis_projects/crypto_kitties_clone/contracts/Katcontract.sol",
  "compiler": {
    "name": "solc",
    "version": "0.8.13+commit.abaa5c0e.Emscripten.clang"
  },
  "schemaVersion": "3.4.4",
  "updatedAt": "2022-04-25T16:02:24.687Z",
  "devdoc": {
    "kind": "dev",
    "methods": {
      "approve(address,uint256)": {
        "details": "The zero address indicates there is no approved address. Throws unless `msg.sender` is the current NFT owner, or an authorized operator of the current owner.",
        "params": {
          "_approved": "The new approved NFT controller",
          "_tokenId": "The NFT to approve"
        }
      },
      "balanceOf(address)": {
        "details": "Returns the number of tokens in ``owner``'s account."
      },
      "getApproved(uint256)": {
        "details": "Throws if `_tokenId` is not a valid NFT.",
        "params": {
          "_tokenId": "The NFT to find the approved address for"
        },
        "returns": {
          "_0": "The approved address for this NFT, or the zero address if there is none"
        }
      },
      "isApprovedForAll(address,address)": {
        "params": {
          "_operator": "The address that acts on behalf of the owner",
          "_owner": "The address that owns the NFTs"
        },
        "returns": {
          "_0": "True if `_operator` is an approved operator for `_owner`, false otherwise"
        }
      },
      "owner()": {
        "details": "Returns the address of the current owner."
      },
      "renounceOwnership()": {
        "details": "Leaves the contract without owner. It will not be possible to call `onlyOwner` functions anymore. Can only be called by the current owner. NOTE: Renouncing ownership will leave the contract without an owner, thereby removing any functionality that is only available to the owner."
      },
      "safeTransferFrom(address,address,uint256)": {
        "details": "This works identically to the other function with an extra data parameter,  except this function just sets data to \"\".",
        "params": {
          "_from": "The current owner of the NFT",
          "_to": "The new owner",
          "_tokenId": "The NFT to transfer"
        }
      },
      "safeTransferFrom(address,address,uint256,bytes)": {
        "details": "Throws unless `msg.sender` is the current owner, an authorized  operator, or the approved address for this NFT. Throws if `_from` is  not the current owner. Throws if `_to` is the zero address. Throws if  `_tokenId` is not a valid NFT. When transfer is complete, this function  checks if `_to` is a smart contract (code size > 0). If so, it calls  `onERC721Received` on `_to` and throws if the return value is not  `bytes4(keccak256(\"onERC721Received(address,address,uint256,bytes)\"))`.",
        "params": {
          "_data": "Additional data with no specified format, sent in call to `_to`",
          "_from": "The current owner of the NFT",
          "_to": "The new owner",
          "_tokenId": "The NFT to transfer"
        }
      },
      "setApprovalForAll(address,bool)": {
        "details": "Emits the ApprovalForAll event. The contract MUST allow multiple operators per owner.",
        "params": {
          "_approved": "True if the operator is approved, false to revoke approval",
          "_operator": "Address to add to the set of authorized operators"
        }
      },
      "totalSupply()": {
        "details": "Returns the count of all existing NFTs.",
        "returns": {
          "total": "supply of NFTs."
        }
      },
      "transferFrom(address,address,uint256)": {
        "details": "Throws unless `msg.sender` is the current owner, an authorized  operator, or the approved address for this NFT. Throws if `_from` is  not the current owner. Throws if `_to` is the zero address. Throws if  `_tokenId` is not a valid NFT.",
        "params": {
          "_from": "The current owner of the NFT",
          "_to": "The new owner",
          "_tokenId": "The NFT to transfer"
        }
      },
      "transferOwnership(address)": {
        "details": "Transfers ownership of the contract to a new account (`newOwner`). Can only be called by the current owner."
      }
    },
    "version": 1
  },
  "userdoc": {
    "kind": "user",
    "methods": {
      "approve(address,uint256)": {
        "notice": "Change or reaffirm the approved address for an NFT"
      },
      "getApproved(uint256)": {
        "notice": "Get the approved address for a single NFT"
      },
      "isApprovedForAll(address,address)": {
        "notice": "Query if an address is an authorized operator for another address"
      },
      "safeTransferFrom(address,address,uint256)": {
        "notice": "Transfers the ownership of an NFT from one address to another address"
      },
      "safeTransferFrom(address,address,uint256,bytes)": {
        "notice": "Transfers the ownership of an NFT from one address to another address"
      },
      "setApprovalForAll(address,bool)": {
        "notice": "Enable or disable approval for a third party (\"operator\") to manage all of `msg.sender`'s assets"
      },
      "transferFrom(address,address,uint256)": {
        "notice": "Transfer ownership of an NFT -- THE CALLER IS RESPONSIBLE  TO CONFIRM THAT `_to` IS CAPABLE OF RECEIVING NFTS OR ELSE  THEY MAY BE PERMANENTLY LOST"
      }
    },
    "version": 1
  }
}