{
  "contractName": "Katcontract",
  "abi": [
    {
      "anonymous": false,
      "inputs": [
        {
          "indexed": true,
          "internalType": "address",
          "name": "owner",
          "type": "address"
        },
        {
          "indexed": true,
          "internalType": "address",
          "name": "approved",
          "type": "address"
        },
        {
          "indexed": true,
          "internalType": "uint256",
          "name": "tokenId",
          "type": "uint256"
        }
      ],
      "name": "Approval",
      "type": "event"
    },
    {
      "anonymous": false,
      "inputs": [
        {
          "indexed": false,
          "internalType": "address",
          "name": "owner",
          "type": "address"
        },
        {
          "indexed": false,
          "internalType": "uint256",
          "name": "katId",
          "type": "uint256"
        },
        {
          "indexed": false,
          "internalType": "uint256",
          "name": "motherId",
          "type": "uint256"
        },
        {
          "indexed": false,
          "internalType": "uint256",
          "name": "fatherId",
          "type": "uint256"
        },
        {
          "indexed": false,
          "internalType": "uint256",
          "name": "genes",
          "type": "uint256"
        }
      ],
      "name": "Birth",
      "type": "event"
    },
    {
      "anonymous": false,
      "inputs": [
        {
          "indexed": true,
          "internalType": "address",
          "name": "previousOwner",
          "type": "address"
        },
        {
          "indexed": true,
          "internalType": "address",
          "name": "newOwner",
          "type": "address"
        }
      ],
      "name": "OwnershipTransferred",
      "type": "event"
    },
    {
      "anonymous": false,
      "inputs": [
        {
          "indexed": true,
          "internalType": "address",
          "name": "from",
          "type": "address"
        },
        {
          "indexed": true,
          "internalType": "address",
          "name": "to",
          "type": "address"
        },
        {
          "indexed": true,
          "internalType": "uint256",
          "name": "tokenId",
          "type": "uint256"
        }
      ],
      "name": "Transfer",
      "type": "event"
    },
    {
      "inputs": [],
      "name": "owner",
      "outputs": [
        {
          "internalType": "address",
          "name": "",
          "type": "address"
        }
      ],
      "stateMutability": "view",
      "type": "function",
      "constant": true
    },
    {
      "inputs": [],
      "name": "renounceOwnership",
      "outputs": [],
      "stateMutability": "nonpayable",
      "type": "function"
    },
    {
      "inputs": [],
      "name": "tokenName",
      "outputs": [
        {
          "internalType": "string",
          "name": "",
          "type": "string"
        }
      ],
      "stateMutability": "view",
      "type": "function",
      "constant": true
    },
    {
      "inputs": [],
      "name": "tokenSymbol",
      "outputs": [
        {
          "internalType": "string",
          "name": "",
          "type": "string"
        }
      ],
      "stateMutability": "view",
      "type": "function",
      "constant": true
    },
    {
      "inputs": [
        {
          "internalType": "address",
          "name": "newOwner",
          "type": "address"
        }
      ],
      "name": "transferOwnership",
      "outputs": [],
      "stateMutability": "nonpayable",
      "type": "function"
    },
    {
      "inputs": [
        {
          "internalType": "uint256",
          "name": "_genes",
          "type": "uint256"
        }
      ],
      "name": "createKatGen0",
      "outputs": [
        {
          "internalType": "uint256",
          "name": "",
          "type": "uint256"
        }
      ],
      "stateMutability": "nonpayable",
      "type": "function"
    },
    {
      "inputs": [
        {
          "internalType": "uint256",
          "name": "_id",
          "type": "uint256"
        }
      ],
      "name": "getKat",
      "outputs": [
        {
          "internalType": "uint256",
          "name": "genes",
          "type": "uint256"
        },
        {
          "internalType": "uint256",
          "name": "birthTime",
          "type": "uint256"
        },
        {
          "internalType": "uint256",
          "name": "motherId",
          "type": "uint256"
        },
        {
          "internalType": "uint256",
          "name": "fatherId",
          "type": "uint256"
        },
        {
          "internalType": "uint256",
          "name": "generation",
          "type": "uint256"
        }
      ],
      "stateMutability": "view",
      "type": "function",
      "constant": true
    },
    {
      "inputs": [
        {
          "internalType": "address",
          "name": "owner",
          "type": "address"
        }
      ],
      "name": "balanceOf",
      "outputs": [
        {
          "internalType": "uint256",
          "name": "balance",
          "type": "uint256"
        }
      ],
      "stateMutability": "view",
      "type": "function",
      "constant": true
    },
    {
      "inputs": [],
      "name": "totalSupply",
      "outputs": [
        {
          "internalType": "uint256",
          "name": "total",
          "type": "uint256"
        }
      ],
      "stateMutability": "view",
      "type": "function",
      "constant": true
    },
    {
      "inputs": [],
      "name": "name",
      "outputs": [
        {
          "internalType": "string",
          "name": "_tokenName",
          "type": "string"
        }
      ],
      "stateMutability": "pure",
      "type": "function",
      "constant": true
    },
    {
      "inputs": [],
      "name": "symbol",
      "outputs": [
        {
          "internalType": "string",
          "name": "_tokenSymbol",
          "type": "string"
        }
      ],
      "stateMutability": "pure",
      "type": "function",
      "constant": true
    },
    {
      "inputs": [
        {
          "internalType": "uint256",
          "name": "_tokenId",
          "type": "uint256"
        }
      ],
      "name": "ownerOf",
      "outputs": [
        {
          "internalType": "address",
          "name": "owner",
          "type": "address"
        }
      ],
      "stateMutability": "view",
      "type": "function",
      "constant": true
    },
    {
      "inputs": [
        {
          "internalType": "address",
          "name": "_to",
          "type": "address"
        },
        {
          "internalType": "uint256",
          "name": "_tokenId",
          "type": "uint256"
        }
      ],
      "name": "transfer",
      "outputs": [],
      "stateMutability": "nonpayable",
      "type": "function"
    }
  ],
  "bytecode": "0x608060405234801561001057600080fd5b5061002d61002261003260201b60201c565b61003a60201b60201c565b6100fe565b600033905090565b60008060009054906101000a900473ffffffffffffffffffffffffffffffffffffffff169050816000806101000a81548173ffffffffffffffffffffffffffffffffffffffff021916908373ffffffffffffffffffffffffffffffffffffffff1602179055508173ffffffffffffffffffffffffffffffffffffffff168173ffffffffffffffffffffffffffffffffffffffff167f8be0079c531659141344cd1fd0a4f28419497f9722a3daafe3b4186f6b6457e060405160405180910390a35050565b6111068061010d6000396000f3fe608060405234801561001057600080fd5b50600436106100cf5760003560e01c8063715018a61161008c57806395d89b411161006657806395d89b4114610204578063a9059cbb14610222578063e31c06211461023e578063f2fde38b14610272576100cf565b8063715018a6146101be5780637b61c320146101c85780638da5cb5b146101e6576100cf565b806304a72daa146100d457806306fdde031461010457806318160ddd146101225780636352211e146101405780636c02a9311461017057806370a082311461018e575b600080fd5b6100ee60048036038101906100e99190610c22565b61028e565b6040516100fb9190610c5e565b60405180910390f35b61010c610322565b6040516101199190610d12565b60405180910390f35b61012a61035f565b6040516101379190610c5e565b60405180910390f35b61015a60048036038101906101559190610c22565b61036c565b6040516101679190610d75565b60405180910390f35b6101786103a9565b6040516101859190610d12565b60405180910390f35b6101a860048036038101906101a39190610dbc565b6103e2565b6040516101b59190610c5e565b60405180910390f35b6101c661042b565b005b6101d06104b3565b6040516101dd9190610d12565b60405180910390f35b6101ee6104ec565b6040516101fb9190610d75565b60405180910390f35b61020c610515565b6040516102199190610d12565b60405180910390f35b61023c60048036038101906102379190610de9565b610552565b005b61025860048036038101906102539190610c22565b6105e5565b604051610269959493929190610e29565b60405180910390f35b61028c60048036038101906102879190610dbc565b61069b565b005b6000610298610792565b73ffffffffffffffffffffffffffffffffffffffff166102b66104ec565b73ffffffffffffffffffffffffffffffffffffffff161461030c576040517f08c379a000000000000000000000000000000000000000000000000000000000815260040161030390610ec8565b60405180910390fd5b61031b6000806000853361079a565b9050919050565b60606040518060400160405280600a81526020017f43727970746f4b61747300000000000000000000000000000000000000000000815250905090565b6000600180549050905090565b60006003600083815260200190815260200160002060009054906101000a900473ffffffffffffffffffffffffffffffffffffffff169050919050565b6040518060400160405280600a81526020017f43727970746f4b6174730000000000000000000000000000000000000000000081525081565b6000600260008373ffffffffffffffffffffffffffffffffffffffff1673ffffffffffffffffffffffffffffffffffffffff168152602001908152602001600020549050919050565b610433610792565b73ffffffffffffffffffffffffffffffffffffffff166104516104ec565b73ffffffffffffffffffffffffffffffffffffffff16146104a7576040517f08c379a000000000000000000000000000000000000000000000000000000000815260040161049e90610ec8565b60405180910390fd5b6104b16000610926565b565b6040518060400160405280600281526020017f434b00000000000000000000000000000000000000000000000000000000000081525081565b60008060009054906101000a900473ffffffffffffffffffffffffffffffffffffffff16905090565b60606040518060400160405280600281526020017f434b000000000000000000000000000000000000000000000000000000000000815250905090565b600073ffffffffffffffffffffffffffffffffffffffff168273ffffffffffffffffffffffffffffffffffffffff160361058b57600080fd5b3073ffffffffffffffffffffffffffffffffffffffff168273ffffffffffffffffffffffffffffffffffffffff16036105c357600080fd5b6105cd33826109ea565b6105d657600080fd5b6105e1338383610a56565b5050565b6000806000806000806001878154811061060257610601610ee8565b5b90600052602060002090600202019050806000015495508060010160009054906101000a900467ffffffffffffffff1667ffffffffffffffff1694508060010160089054906101000a900463ffffffff1663ffffffff16935080600101600c9054906101000a900463ffffffff1663ffffffff1692508060010160109054906101000a900461ffff1661ffff1691505091939590929450565b6106a3610792565b73ffffffffffffffffffffffffffffffffffffffff166106c16104ec565b73ffffffffffffffffffffffffffffffffffffffff1614610717576040517f08c379a000000000000000000000000000000000000000000000000000000000815260040161070e90610ec8565b60405180910390fd5b600073ffffffffffffffffffffffffffffffffffffffff168173ffffffffffffffffffffffffffffffffffffffff1603610786576040517f08c379a000000000000000000000000000000000000000000000000000000000815260040161077d90610f89565b60405180910390fd5b61078f81610926565b50565b600033905090565b6000806040518060a001604052808581526020014267ffffffffffffffff1681526020018863ffffffff1681526020018763ffffffff1681526020018661ffff16815250905060018190806001815401808255809150506001900390600052602060002090600202016000909190919091506000820151816000015560208201518160010160006101000a81548167ffffffffffffffff021916908367ffffffffffffffff16021790555060408201518160010160086101000a81548163ffffffff021916908363ffffffff160217905550606082015181600101600c6101000a81548163ffffffff021916908363ffffffff16021790555060808201518160010160106101000a81548161ffff021916908361ffff16021790555050506000600180805490506108cb9190610fd8565b90507f0a5311bd2a6608f08a180df2ee7c5946819a649b204b554bb8e39825b2c50ad584828a8a8960405161090495949392919061100c565b60405180910390a161091860008583610a56565b809250505095945050505050565b60008060009054906101000a900473ffffffffffffffffffffffffffffffffffffffff169050816000806101000a81548173ffffffffffffffffffffffffffffffffffffffff021916908373ffffffffffffffffffffffffffffffffffffffff1602179055508173ffffffffffffffffffffffffffffffffffffffff168173ffffffffffffffffffffffffffffffffffffffff167f8be0079c531659141344cd1fd0a4f28419497f9722a3daafe3b4186f6b6457e060405160405180910390a35050565b60008273ffffffffffffffffffffffffffffffffffffffff166003600084815260200190815260200160002060009054906101000a900473ffffffffffffffffffffffffffffffffffffffff1673ffffffffffffffffffffffffffffffffffffffff1614905092915050565b600260008373ffffffffffffffffffffffffffffffffffffffff1673ffffffffffffffffffffffffffffffffffffffff1681526020019081526020016000206000815480929190610aa69061105f565b9190505550816003600083815260200190815260200160002060006101000a81548173ffffffffffffffffffffffffffffffffffffffff021916908373ffffffffffffffffffffffffffffffffffffffff160217905550600073ffffffffffffffffffffffffffffffffffffffff168373ffffffffffffffffffffffffffffffffffffffff1614610b8757600260008473ffffffffffffffffffffffffffffffffffffffff1673ffffffffffffffffffffffffffffffffffffffff1681526020019081526020016000206000815480929190610b81906110a7565b91905055505b808273ffffffffffffffffffffffffffffffffffffffff168473ffffffffffffffffffffffffffffffffffffffff167fddf252ad1be2c89b69c2b068fc378daa952ba7f163c4a11628f55a4df523b3ef60405160405180910390a4505050565b600080fd5b6000819050919050565b610bff81610bec565b8114610c0a57600080fd5b50565b600081359050610c1c81610bf6565b92915050565b600060208284031215610c3857610c37610be7565b5b6000610c4684828501610c0d565b91505092915050565b610c5881610bec565b82525050565b6000602082019050610c736000830184610c4f565b92915050565b600081519050919050565b600082825260208201905092915050565b60005b83811015610cb3578082015181840152602081019050610c98565b83811115610cc2576000848401525b50505050565b6000601f19601f8301169050919050565b6000610ce482610c79565b610cee8185610c84565b9350610cfe818560208601610c95565b610d0781610cc8565b840191505092915050565b60006020820190508181036000830152610d2c8184610cd9565b905092915050565b600073ffffffffffffffffffffffffffffffffffffffff82169050919050565b6000610d5f82610d34565b9050919050565b610d6f81610d54565b82525050565b6000602082019050610d8a6000830184610d66565b92915050565b610d9981610d54565b8114610da457600080fd5b50565b600081359050610db681610d90565b92915050565b600060208284031215610dd257610dd1610be7565b5b6000610de084828501610da7565b91505092915050565b60008060408385031215610e0057610dff610be7565b5b6000610e0e85828601610da7565b9250506020610e1f85828601610c0d565b9150509250929050565b600060a082019050610e3e6000830188610c4f565b610e4b6020830187610c4f565b610e586040830186610c4f565b610e656060830185610c4f565b610e726080830184610c4f565b9695505050505050565b7f4f776e61626c653a2063616c6c6572206973206e6f7420746865206f776e6572600082015250565b6000610eb2602083610c84565b9150610ebd82610e7c565b602082019050919050565b60006020820190508181036000830152610ee181610ea5565b9050919050565b7f4e487b7100000000000000000000000000000000000000000000000000000000600052603260045260246000fd5b7f4f776e61626c653a206e6577206f776e657220697320746865207a65726f206160008201527f6464726573730000000000000000000000000000000000000000000000000000602082015250565b6000610f73602683610c84565b9150610f7e82610f17565b604082019050919050565b60006020820190508181036000830152610fa281610f66565b9050919050565b7f4e487b7100000000000000000000000000000000000000000000000000000000600052601160045260246000fd5b6000610fe382610bec565b9150610fee83610bec565b92508282101561100157611000610fa9565b5b828203905092915050565b600060a0820190506110216000830188610d66565b61102e6020830187610c4f565b61103b6040830186610c4f565b6110486060830185610c4f565b6110556080830184610c4f565b9695505050505050565b600061106a82610bec565b91507fffffffffffffffffffffffffffffffffffffffffffffffffffffffffffffffff820361109c5761109b610fa9565b5b600182019050919050565b60006110b282610bec565b9150600082036110c5576110c4610fa9565b5b60018203905091905056fea26469706673582212209e3337b4d91cf2d893b40f3bbb226d89a36d5721a6de287c18d68d261dce2c1e64736f6c634300080d0033",
  "immutableReferences": {},
  "source": "// SPDX-License-Identifier: MIT\npragma solidity 0.8.13;\n\nimport \"./IERC721.sol\";\nimport \"../node_modules/@openzeppelin/contracts/access/Ownable.sol\";\n\ncontract Katcontract is IERC721, Ownable {\n\n    /*\n     * @dev List of Token name and symbol\n     */\n    string public constant tokenName = \"CryptoKats\";\n    string public constant tokenSymbol = \"CK\";\n\n    /*\n     * @dev Event where new CryptoKat is created\n     */\n    event Birth(\n        address owner, \n        uint256 katId, \n        uint256 motherId, \n        uint256 fatherId, \n        uint256 genes\n        );\n\n    /*\n     * @dev Struct of CryptoKat NFT\n     */\n    struct Kat {\n        uint256 genes;\n        uint64 birthTime;\n        uint32 motherId;\n        uint32 fatherId;\n        uint16 generation;\n    }\n\n    /*\n     * @dev Array of all CryptoKat NFTs.\n     */\n    Kat[] internal kats;\n\n    /*\n     * @dev Mapping from owner address to count of their tokens.\n     */\n    mapping(address => uint256) private ownedTokenCount;\n\n    /*\n     * @dev Mapping from tokenId to the address that owns it.\n     */\n    mapping(uint256 => address) internal idToOwner;\n\n    /*************************************************************/\n\n    /* \n     * @dev Gen0 creation of a CryptoKat NFT.\n     */\n    function createKatGen0(uint256 _genes) public onlyOwner returns (uint256) {\n        return _createKat(0, 0, 0, _genes, msg.sender);\n    }\n\n    /*\n     * @dev Creation of new Kat.\n     */\n    function _createKat(\n        uint256 _motherId,\n        uint256 _fatherId,\n        uint256 _generation,\n        uint256 _genes,\n        address _owner\n    ) private returns (uint256) {\n        Kat memory _kat = Kat({\n            genes: _genes,\n            birthTime: uint64(block.timestamp),\n            motherId: uint32(_motherId),\n            fatherId: uint32(_fatherId),\n            generation: uint16(_generation)\n        });\n\n        kats.push(_kat);\n        uint256 newKatId = kats.length - 1;\n\n        emit Birth(_owner, newKatId, _motherId, _fatherId, _genes);\n\n        _transfer(address(0), _owner, newKatId);\n\n        return newKatId;\n    }\n\n    /*\n     * @dev Returns properties of CryptoKat NFT by tokenId.\n     */\n    function getKat(uint256 _id) external view returns(\n        uint256 genes,\n        uint256 birthTime,\n        uint256 motherId,\n        uint256 fatherId,\n        uint256 generation\n        ) {\n\n            Kat storage kat = kats[_id];\n\n            genes = uint256(kat.genes);\n            birthTime = uint256(kat.birthTime);\n            motherId = uint256(kat.motherId);\n            fatherId = uint256(kat.fatherId);\n            generation = uint256(kat.generation);\n        }\n\n    /*\n     * @dev Returns the total number of tokens in circulation.\n     */    \n    function balanceOf(address owner) external view returns (uint256 balance){\n        return ownedTokenCount[owner];\n    }\n\n    /**\n     * @dev Returns the count of all existing NFTs.\n     * @return total supply of NFTs.\n     */\n    function totalSupply() external view returns (uint256 total){\n        return kats.length;\n    }\n\n    /*\n     * @dev Returns the name of the token.\n     */\n    function name() external pure returns (string memory _tokenName){\n       _tokenName = tokenName;\n    }\n\n    /*\n     * @dev Returns the symbol of the token.\n     */\n    function symbol() external pure returns (string memory _tokenSymbol){\n        _tokenSymbol = tokenSymbol;\n    }\n\n    /*\n     * @dev Returns the owner of the `tokenId` token.\n     */\n    function ownerOf(uint256 _tokenId) external view returns (address owner){\n        return idToOwner[_tokenId];\n    }\n\n    /* \n     * @dev Transfers `tokenId` token from `msg.sender` to `to`.\n     * Emits a transfer event\n     */\n    function transfer(address _to, uint256 _tokenId) external {\n        require(_to != address(0));\n        require(_to != address(this));\n        require(_owns(msg.sender, _tokenId));\n\n        _transfer(msg.sender, _to, _tokenId);\n    }\n\n    /*\n     * @dev Internal handling of ownedTokenCount from `msg.sender` to `to`.\n     */\n    function _transfer(address _from, address _to, uint256 _tokenId) internal {\n        // Increase token count of recipient \n        ownedTokenCount[_to]++;\n        // set tokenId to recipient\n        idToOwner[_tokenId] = _to;\n\n        if (_from != address(0)) {\n            // decrease token count from sender\n            ownedTokenCount[_from]--;\n        }\n\n        // Emit transfer event\n        emit Transfer(_from, _to, _tokenId);\n    }\n\n    /*\n     * @dev Verifies `msg.sender` owns the NFT.\n     */\n    function _owns(address _claimant, uint256 _tokenId) internal view returns (bool) {\n        return idToOwner[_tokenId] == _claimant;\n    }\n\n}\n",
  "sourcePath": "/Users/alexjohnson/Desktop/projects/moralis_projects/crypto_kitties_clone/contracts/Katcontract.sol",
  "compiler": {
    "name": "solc",
    "version": "0.8.13+commit.abaa5c0e.Emscripten.clang"
  },
  "schemaVersion": "3.4.4",
  "updatedAt": "2022-04-19T14:36:19.097Z",
  "networkType": "ethereum",
  "devdoc": {
    "kind": "dev",
    "methods": {
      "balanceOf(address)": {
        "details": "Returns the number of tokens in ``owner``'s account."
      },
      "owner()": {
        "details": "Returns the address of the current owner."
      },
      "renounceOwnership()": {
        "details": "Leaves the contract without owner. It will not be possible to call `onlyOwner` functions anymore. Can only be called by the current owner. NOTE: Renouncing ownership will leave the contract without an owner, thereby removing any functionality that is only available to the owner."
      },
      "totalSupply()": {
        "details": "Returns the count of all existing NFTs.",
        "returns": {
          "total": "supply of NFTs."
        }
      },
      "transferOwnership(address)": {
        "details": "Transfers ownership of the contract to a new account (`newOwner`). Can only be called by the current owner."
      }
    },
    "version": 1
  },
  "userdoc": {
    "kind": "user",
    "methods": {},
    "version": 1
  }
}