{
  "contractName": "Katcontract",
  "abi": [
    {
      "anonymous": false,
      "inputs": [
        {
          "indexed": true,
          "internalType": "address",
          "name": "owner",
          "type": "address"
        },
        {
          "indexed": true,
          "internalType": "address",
          "name": "approved",
          "type": "address"
        },
        {
          "indexed": true,
          "internalType": "uint256",
          "name": "tokenId",
          "type": "uint256"
        }
      ],
      "name": "Approval",
      "type": "event"
    },
    {
      "anonymous": false,
      "inputs": [
        {
          "indexed": false,
          "internalType": "address",
          "name": "owner",
          "type": "address"
        },
        {
          "indexed": false,
          "internalType": "uint256",
          "name": "katId",
          "type": "uint256"
        },
        {
          "indexed": false,
          "internalType": "uint256",
          "name": "motherId",
          "type": "uint256"
        },
        {
          "indexed": false,
          "internalType": "uint256",
          "name": "fatherId",
          "type": "uint256"
        },
        {
          "indexed": false,
          "internalType": "uint256",
          "name": "genes",
          "type": "uint256"
        }
      ],
      "name": "Birth",
      "type": "event"
    },
    {
      "anonymous": false,
      "inputs": [
        {
          "indexed": true,
          "internalType": "address",
          "name": "previousOwner",
          "type": "address"
        },
        {
          "indexed": true,
          "internalType": "address",
          "name": "newOwner",
          "type": "address"
        }
      ],
      "name": "OwnershipTransferred",
      "type": "event"
    },
    {
      "anonymous": false,
      "inputs": [
        {
          "indexed": true,
          "internalType": "address",
          "name": "from",
          "type": "address"
        },
        {
          "indexed": true,
          "internalType": "address",
          "name": "to",
          "type": "address"
        },
        {
          "indexed": true,
          "internalType": "uint256",
          "name": "tokenId",
          "type": "uint256"
        }
      ],
      "name": "Transfer",
      "type": "event"
    },
    {
      "inputs": [],
      "name": "owner",
      "outputs": [
        {
          "internalType": "address",
          "name": "",
          "type": "address"
        }
      ],
      "stateMutability": "view",
      "type": "function",
      "constant": true
    },
    {
      "inputs": [],
      "name": "renounceOwnership",
      "outputs": [],
      "stateMutability": "nonpayable",
      "type": "function"
    },
    {
      "inputs": [],
      "name": "tokenName",
      "outputs": [
        {
          "internalType": "string",
          "name": "",
          "type": "string"
        }
      ],
      "stateMutability": "view",
      "type": "function",
      "constant": true
    },
    {
      "inputs": [],
      "name": "tokenSymbol",
      "outputs": [
        {
          "internalType": "string",
          "name": "",
          "type": "string"
        }
      ],
      "stateMutability": "view",
      "type": "function",
      "constant": true
    },
    {
      "inputs": [
        {
          "internalType": "address",
          "name": "newOwner",
          "type": "address"
        }
      ],
      "name": "transferOwnership",
      "outputs": [],
      "stateMutability": "nonpayable",
      "type": "function"
    },
    {
      "inputs": [
        {
          "internalType": "uint256",
          "name": "_genes",
          "type": "uint256"
        }
      ],
      "name": "createKatGen0",
      "outputs": [
        {
          "internalType": "uint256",
          "name": "",
          "type": "uint256"
        }
      ],
      "stateMutability": "nonpayable",
      "type": "function"
    },
    {
      "inputs": [
        {
          "internalType": "address",
          "name": "owner",
          "type": "address"
        }
      ],
      "name": "balanceOf",
      "outputs": [
        {
          "internalType": "uint256",
          "name": "balance",
          "type": "uint256"
        }
      ],
      "stateMutability": "view",
      "type": "function",
      "constant": true
    },
    {
      "inputs": [],
      "name": "totalSupply",
      "outputs": [
        {
          "internalType": "uint256",
          "name": "total",
          "type": "uint256"
        }
      ],
      "stateMutability": "view",
      "type": "function",
      "constant": true
    },
    {
      "inputs": [],
      "name": "name",
      "outputs": [
        {
          "internalType": "string",
          "name": "_tokenName",
          "type": "string"
        }
      ],
      "stateMutability": "pure",
      "type": "function",
      "constant": true
    },
    {
      "inputs": [],
      "name": "symbol",
      "outputs": [
        {
          "internalType": "string",
          "name": "_tokenSymbol",
          "type": "string"
        }
      ],
      "stateMutability": "pure",
      "type": "function",
      "constant": true
    },
    {
      "inputs": [
        {
          "internalType": "uint256",
          "name": "_tokenId",
          "type": "uint256"
        }
      ],
      "name": "ownerOf",
      "outputs": [
        {
          "internalType": "address",
          "name": "owner",
          "type": "address"
        }
      ],
      "stateMutability": "view",
      "type": "function",
      "constant": true
    },
    {
      "inputs": [
        {
          "internalType": "address",
          "name": "_to",
          "type": "address"
        },
        {
          "internalType": "uint256",
          "name": "_tokenId",
          "type": "uint256"
        }
      ],
      "name": "transfer",
      "outputs": [],
      "stateMutability": "nonpayable",
      "type": "function"
    }
  ],
  "bytecode": "0x608060405234801561001057600080fd5b5061002d61002261003260201b60201c565b61003a60201b60201c565b6100fe565b600033905090565b60008060009054906101000a900473ffffffffffffffffffffffffffffffffffffffff169050816000806101000a81548173ffffffffffffffffffffffffffffffffffffffff021916908373ffffffffffffffffffffffffffffffffffffffff1602179055508173ffffffffffffffffffffffffffffffffffffffff168173ffffffffffffffffffffffffffffffffffffffff167f8be0079c531659141344cd1fd0a4f28419497f9722a3daafe3b4186f6b6457e060405160405180910390a35050565b610f7f8061010d6000396000f3fe608060405234801561001057600080fd5b50600436106100b45760003560e01c8063715018a611610071578063715018a6146101a35780637b61c320146101ad5780638da5cb5b146101cb57806395d89b41146101e9578063a9059cbb14610207578063f2fde38b14610223576100b4565b806304a72daa146100b957806306fdde03146100e957806318160ddd146101075780636352211e146101255780636c02a9311461015557806370a0823114610173575b600080fd5b6100d360048036038101906100ce9190610b1d565b61023f565b6040516100e09190610b59565b60405180910390f35b6100f16102d3565b6040516100fe9190610c0d565b60405180910390f35b61010f610310565b60405161011c9190610b59565b60405180910390f35b61013f600480360381019061013a9190610b1d565b61031d565b60405161014c9190610c70565b60405180910390f35b61015d61035a565b60405161016a9190610c0d565b60405180910390f35b61018d60048036038101906101889190610cb7565b610393565b60405161019a9190610b59565b60405180910390f35b6101ab6103dc565b005b6101b5610464565b6040516101c29190610c0d565b60405180910390f35b6101d361049d565b6040516101e09190610c70565b60405180910390f35b6101f16104c6565b6040516101fe9190610c0d565b60405180910390f35b610221600480360381019061021c9190610ce4565b610503565b005b61023d60048036038101906102389190610cb7565b610596565b005b600061024961068d565b73ffffffffffffffffffffffffffffffffffffffff1661026761049d565b73ffffffffffffffffffffffffffffffffffffffff16146102bd576040517f08c379a00000000000000000000000000000000000000000000000000000000081526004016102b490610d70565b60405180910390fd5b6102cc60008060008533610695565b9050919050565b60606040518060400160405280600a81526020017f43727970746f4b61747300000000000000000000000000000000000000000000815250905090565b6000600180549050905090565b60006003600083815260200190815260200160002060009054906101000a900473ffffffffffffffffffffffffffffffffffffffff169050919050565b6040518060400160405280600a81526020017f43727970746f4b6174730000000000000000000000000000000000000000000081525081565b6000600260008373ffffffffffffffffffffffffffffffffffffffff1673ffffffffffffffffffffffffffffffffffffffff168152602001908152602001600020549050919050565b6103e461068d565b73ffffffffffffffffffffffffffffffffffffffff1661040261049d565b73ffffffffffffffffffffffffffffffffffffffff1614610458576040517f08c379a000000000000000000000000000000000000000000000000000000000815260040161044f90610d70565b60405180910390fd5b6104626000610821565b565b6040518060400160405280600281526020017f434b00000000000000000000000000000000000000000000000000000000000081525081565b60008060009054906101000a900473ffffffffffffffffffffffffffffffffffffffff16905090565b60606040518060400160405280600281526020017f434b000000000000000000000000000000000000000000000000000000000000815250905090565b600073ffffffffffffffffffffffffffffffffffffffff168273ffffffffffffffffffffffffffffffffffffffff160361053c57600080fd5b3073ffffffffffffffffffffffffffffffffffffffff168273ffffffffffffffffffffffffffffffffffffffff160361057457600080fd5b61057e33826108e5565b61058757600080fd5b610592338383610951565b5050565b61059e61068d565b73ffffffffffffffffffffffffffffffffffffffff166105bc61049d565b73ffffffffffffffffffffffffffffffffffffffff1614610612576040517f08c379a000000000000000000000000000000000000000000000000000000000815260040161060990610d70565b60405180910390fd5b600073ffffffffffffffffffffffffffffffffffffffff168173ffffffffffffffffffffffffffffffffffffffff1603610681576040517f08c379a000000000000000000000000000000000000000000000000000000000815260040161067890610e02565b60405180910390fd5b61068a81610821565b50565b600033905090565b6000806040518060a001604052808581526020014267ffffffffffffffff1681526020018863ffffffff1681526020018763ffffffff1681526020018661ffff16815250905060018190806001815401808255809150506001900390600052602060002090600202016000909190919091506000820151816000015560208201518160010160006101000a81548167ffffffffffffffff021916908367ffffffffffffffff16021790555060408201518160010160086101000a81548163ffffffff021916908363ffffffff160217905550606082015181600101600c6101000a81548163ffffffff021916908363ffffffff16021790555060808201518160010160106101000a81548161ffff021916908361ffff16021790555050506000600180805490506107c69190610e51565b90507f0a5311bd2a6608f08a180df2ee7c5946819a649b204b554bb8e39825b2c50ad584828a8a896040516107ff959493929190610e85565b60405180910390a161081360008583610951565b809250505095945050505050565b60008060009054906101000a900473ffffffffffffffffffffffffffffffffffffffff169050816000806101000a81548173ffffffffffffffffffffffffffffffffffffffff021916908373ffffffffffffffffffffffffffffffffffffffff1602179055508173ffffffffffffffffffffffffffffffffffffffff168173ffffffffffffffffffffffffffffffffffffffff167f8be0079c531659141344cd1fd0a4f28419497f9722a3daafe3b4186f6b6457e060405160405180910390a35050565b60008273ffffffffffffffffffffffffffffffffffffffff166003600084815260200190815260200160002060009054906101000a900473ffffffffffffffffffffffffffffffffffffffff1673ffffffffffffffffffffffffffffffffffffffff1614905092915050565b600260008373ffffffffffffffffffffffffffffffffffffffff1673ffffffffffffffffffffffffffffffffffffffff16815260200190815260200160002060008154809291906109a190610ed8565b9190505550816003600083815260200190815260200160002060006101000a81548173ffffffffffffffffffffffffffffffffffffffff021916908373ffffffffffffffffffffffffffffffffffffffff160217905550600073ffffffffffffffffffffffffffffffffffffffff168373ffffffffffffffffffffffffffffffffffffffff1614610a8257600260008473ffffffffffffffffffffffffffffffffffffffff1673ffffffffffffffffffffffffffffffffffffffff1681526020019081526020016000206000815480929190610a7c90610f20565b91905055505b808273ffffffffffffffffffffffffffffffffffffffff168473ffffffffffffffffffffffffffffffffffffffff167fddf252ad1be2c89b69c2b068fc378daa952ba7f163c4a11628f55a4df523b3ef60405160405180910390a4505050565b600080fd5b6000819050919050565b610afa81610ae7565b8114610b0557600080fd5b50565b600081359050610b1781610af1565b92915050565b600060208284031215610b3357610b32610ae2565b5b6000610b4184828501610b08565b91505092915050565b610b5381610ae7565b82525050565b6000602082019050610b6e6000830184610b4a565b92915050565b600081519050919050565b600082825260208201905092915050565b60005b83811015610bae578082015181840152602081019050610b93565b83811115610bbd576000848401525b50505050565b6000601f19601f8301169050919050565b6000610bdf82610b74565b610be98185610b7f565b9350610bf9818560208601610b90565b610c0281610bc3565b840191505092915050565b60006020820190508181036000830152610c278184610bd4565b905092915050565b600073ffffffffffffffffffffffffffffffffffffffff82169050919050565b6000610c5a82610c2f565b9050919050565b610c6a81610c4f565b82525050565b6000602082019050610c856000830184610c61565b92915050565b610c9481610c4f565b8114610c9f57600080fd5b50565b600081359050610cb181610c8b565b92915050565b600060208284031215610ccd57610ccc610ae2565b5b6000610cdb84828501610ca2565b91505092915050565b60008060408385031215610cfb57610cfa610ae2565b5b6000610d0985828601610ca2565b9250506020610d1a85828601610b08565b9150509250929050565b7f4f776e61626c653a2063616c6c6572206973206e6f7420746865206f776e6572600082015250565b6000610d5a602083610b7f565b9150610d6582610d24565b602082019050919050565b60006020820190508181036000830152610d8981610d4d565b9050919050565b7f4f776e61626c653a206e6577206f776e657220697320746865207a65726f206160008201527f6464726573730000000000000000000000000000000000000000000000000000602082015250565b6000610dec602683610b7f565b9150610df782610d90565b604082019050919050565b60006020820190508181036000830152610e1b81610ddf565b9050919050565b7f4e487b7100000000000000000000000000000000000000000000000000000000600052601160045260246000fd5b6000610e5c82610ae7565b9150610e6783610ae7565b925082821015610e7a57610e79610e22565b5b828203905092915050565b600060a082019050610e9a6000830188610c61565b610ea76020830187610b4a565b610eb46040830186610b4a565b610ec16060830185610b4a565b610ece6080830184610b4a565b9695505050505050565b6000610ee382610ae7565b91507fffffffffffffffffffffffffffffffffffffffffffffffffffffffffffffffff8203610f1557610f14610e22565b5b600182019050919050565b6000610f2b82610ae7565b915060008203610f3e57610f3d610e22565b5b60018203905091905056fea2646970667358221220ec4935fd429c74f3c1d99fc5ef1922e2a9fa31e8ab166f4a18685b4cf965af7764736f6c634300080d0033",
  "immutableReferences": {},
  "source": "// SPDX-License-Identifier: MIT\npragma solidity 0.8.13;\n\nimport \"./IERC721.sol\";\nimport \"../node_modules/@openzeppelin/contracts/access/Ownable.sol\";\n\ncontract Katcontract is IERC721, Ownable {\n\n    /*\n     * @dev List of Token name and symbol\n     */\n    string public constant tokenName = \"CryptoKats\";\n    string public constant tokenSymbol = \"CK\";\n\n    /*\n     * @dev Event where new CryptoKat is created\n     */\n    event Birth(\n        address owner, \n        uint256 katId, \n        uint256 motherId, \n        uint256 fatherId, \n        uint256 genes\n        );\n\n    /*\n     * @dev Struct of CryptoKat NFT\n     */\n    struct Kat {\n        uint256 genes;\n        uint64 birthTime;\n        uint32 motherId;\n        uint32 fatherId;\n        uint16 generation;\n    }\n\n    /*\n     * @dev Array of all CryptoKat NFTs.\n     */\n    Kat[] internal kats;\n\n    /*\n     * @dev Mapping from owner address to count of their tokens.\n     */\n    mapping(address => uint256) private ownedTokenCount;\n\n    /*\n     * @dev Mapping from tokenId to the address that owns it.\n     */\n    mapping(uint256 => address) internal idToOwner;\n\n    /*************************************************************/\n\n    /* TODO:\n     * @dev Gen0 creation of a CryptoKat NFT.\n     */\n    function createKatGen0(uint256 _genes) public onlyOwner returns (uint256) {\n        return _createKat(0, 0, 0, _genes, msg.sender);\n    }\n\n    /*\n     * @dev Creation of new Kat.\n     */\n    function _createKat(\n        uint256 _motherId,\n        uint256 _fatherId,\n        uint256 _generation,\n        uint256 _genes,\n        address _owner\n    ) private returns (uint256) {\n        Kat memory _kat = Kat({\n            genes: _genes,\n            birthTime: uint64(block.timestamp),\n            motherId: uint32(_motherId),\n            fatherId: uint32(_fatherId),\n            generation: uint16(_generation)\n        });\n\n        kats.push(_kat);\n        uint256 newKatId = kats.length - 1;\n\n        emit Birth(_owner, newKatId, _motherId, _fatherId, _genes);\n\n        _transfer(address(0), _owner, newKatId);\n\n        return newKatId;\n    }\n\n    /*\n     * @dev Returns the total number of tokens in circulation.\n     */    \n    function balanceOf(address owner) external view returns (uint256 balance){\n        return ownedTokenCount[owner];\n    }\n\n    /**\n     * @dev Returns the count of all existing NFTs.\n     * @return total supply of NFTs.\n     */\n    function totalSupply() external view returns (uint256 total){\n        return kats.length;\n    }\n\n    /*\n     * @dev Returns the name of the token.\n     */\n    function name() external pure returns (string memory _tokenName){\n       _tokenName = tokenName;\n    }\n\n    /*\n     * @dev Returns the symbol of the token.\n     */\n    function symbol() external pure returns (string memory _tokenSymbol){\n        _tokenSymbol = tokenSymbol;\n    }\n\n    /*\n     * @dev Returns the owner of the `tokenId` token.\n     */\n    function ownerOf(uint256 _tokenId) external view returns (address owner){\n        return idToOwner[_tokenId];\n    }\n\n    /* \n     * @dev Transfers `tokenId` token from `msg.sender` to `to`.\n     * Emits a transfer event\n     */\n    function transfer(address _to, uint256 _tokenId) external {\n        require(_to != address(0));\n        require(_to != address(this));\n        require(_owns(msg.sender, _tokenId));\n\n        _transfer(msg.sender, _to, _tokenId);\n    }\n\n    /*\n     * @dev Internal handling of ownedTokenCount from `msg.sender` to `to`.\n     */\n    function _transfer(address _from, address _to, uint256 _tokenId) internal {\n        // Increase token count of recipient \n        ownedTokenCount[_to]++;\n        // set tokenId to recipient\n        idToOwner[_tokenId] = _to;\n\n        if (_from != address(0)) {\n            // decrease token count from sender\n            ownedTokenCount[_from]--;\n        }\n\n        // Emit transfer event\n        emit Transfer(_from, _to, _tokenId);\n    }\n\n    /*\n     * @dev Verifies `msg.sender` owns the NFT.\n     */\n    function _owns(address _claimant, uint256 _tokenId) internal view returns (bool) {\n        return idToOwner[_tokenId] == _claimant;\n    }\n\n}\n",
  "sourcePath": "/Users/alexjohnson/Desktop/projects/moralis_projects/crypto_kitties_clone/contracts/Katcontract.sol",
  "compiler": {
    "name": "solc",
    "version": "0.8.13+commit.abaa5c0e.Emscripten.clang"
  },
  "schemaVersion": "3.4.4",
  "updatedAt": "2022-04-19T01:52:52.446Z",
  "networkType": "ethereum",
  "devdoc": {
    "kind": "dev",
    "methods": {
      "balanceOf(address)": {
        "details": "Returns the number of tokens in ``owner``'s account."
      },
      "owner()": {
        "details": "Returns the address of the current owner."
      },
      "renounceOwnership()": {
        "details": "Leaves the contract without owner. It will not be possible to call `onlyOwner` functions anymore. Can only be called by the current owner. NOTE: Renouncing ownership will leave the contract without an owner, thereby removing any functionality that is only available to the owner."
      },
      "totalSupply()": {
        "details": "Returns the count of all existing NFTs.",
        "returns": {
          "total": "supply of NFTs."
        }
      },
      "transferOwnership(address)": {
        "details": "Transfers ownership of the contract to a new account (`newOwner`). Can only be called by the current owner."
      }
    },
    "version": 1
  },
  "userdoc": {
    "kind": "user",
    "methods": {},
    "version": 1
  }
}