{
  "contractName": "Katcontract",
  "abi": [
    {
      "anonymous": false,
      "inputs": [
        {
          "indexed": true,
          "internalType": "address",
          "name": "owner",
          "type": "address"
        },
        {
          "indexed": true,
          "internalType": "address",
          "name": "approved",
          "type": "address"
        },
        {
          "indexed": true,
          "internalType": "uint256",
          "name": "tokenId",
          "type": "uint256"
        }
      ],
      "name": "Approval",
      "type": "event"
    },
    {
      "anonymous": false,
      "inputs": [
        {
          "indexed": true,
          "internalType": "address",
          "name": "owner",
          "type": "address"
        },
        {
          "indexed": true,
          "internalType": "address",
          "name": "operator",
          "type": "address"
        },
        {
          "indexed": false,
          "internalType": "bool",
          "name": "approved",
          "type": "bool"
        }
      ],
      "name": "ApprovalForAll",
      "type": "event"
    },
    {
      "anonymous": false,
      "inputs": [
        {
          "indexed": false,
          "internalType": "address",
          "name": "owner",
          "type": "address"
        },
        {
          "indexed": false,
          "internalType": "uint256",
          "name": "katId",
          "type": "uint256"
        },
        {
          "indexed": false,
          "internalType": "uint256",
          "name": "motherId",
          "type": "uint256"
        },
        {
          "indexed": false,
          "internalType": "uint256",
          "name": "fatherId",
          "type": "uint256"
        },
        {
          "indexed": false,
          "internalType": "uint256",
          "name": "genes",
          "type": "uint256"
        }
      ],
      "name": "Birth",
      "type": "event"
    },
    {
      "anonymous": false,
      "inputs": [
        {
          "indexed": true,
          "internalType": "address",
          "name": "previousOwner",
          "type": "address"
        },
        {
          "indexed": true,
          "internalType": "address",
          "name": "newOwner",
          "type": "address"
        }
      ],
      "name": "OwnershipTransferred",
      "type": "event"
    },
    {
      "anonymous": false,
      "inputs": [
        {
          "indexed": true,
          "internalType": "address",
          "name": "from",
          "type": "address"
        },
        {
          "indexed": true,
          "internalType": "address",
          "name": "to",
          "type": "address"
        },
        {
          "indexed": true,
          "internalType": "uint256",
          "name": "tokenId",
          "type": "uint256"
        }
      ],
      "name": "Transfer",
      "type": "event"
    },
    {
      "inputs": [],
      "name": "CREATION_LIMIT_GEN0",
      "outputs": [
        {
          "internalType": "uint256",
          "name": "",
          "type": "uint256"
        }
      ],
      "stateMutability": "view",
      "type": "function"
    },
    {
      "inputs": [],
      "name": "gen0Counter",
      "outputs": [
        {
          "internalType": "uint256",
          "name": "",
          "type": "uint256"
        }
      ],
      "stateMutability": "view",
      "type": "function"
    },
    {
      "inputs": [
        {
          "internalType": "uint256",
          "name": "",
          "type": "uint256"
        }
      ],
      "name": "idToApproved",
      "outputs": [
        {
          "internalType": "address",
          "name": "",
          "type": "address"
        }
      ],
      "stateMutability": "view",
      "type": "function"
    },
    {
      "inputs": [],
      "name": "owner",
      "outputs": [
        {
          "internalType": "address",
          "name": "",
          "type": "address"
        }
      ],
      "stateMutability": "view",
      "type": "function"
    },
    {
      "inputs": [],
      "name": "renounceOwnership",
      "outputs": [],
      "stateMutability": "nonpayable",
      "type": "function"
    },
    {
      "inputs": [],
      "name": "tokenName",
      "outputs": [
        {
          "internalType": "string",
          "name": "",
          "type": "string"
        }
      ],
      "stateMutability": "view",
      "type": "function"
    },
    {
      "inputs": [],
      "name": "tokenSymbol",
      "outputs": [
        {
          "internalType": "string",
          "name": "",
          "type": "string"
        }
      ],
      "stateMutability": "view",
      "type": "function"
    },
    {
      "inputs": [
        {
          "internalType": "address",
          "name": "newOwner",
          "type": "address"
        }
      ],
      "name": "transferOwnership",
      "outputs": [],
      "stateMutability": "nonpayable",
      "type": "function"
    },
    {
      "inputs": [
        {
          "internalType": "bytes4",
          "name": "_interfaceId",
          "type": "bytes4"
        }
      ],
      "name": "supportsInterface",
      "outputs": [
        {
          "internalType": "bool",
          "name": "",
          "type": "bool"
        }
      ],
      "stateMutability": "pure",
      "type": "function"
    },
    {
      "inputs": [
        {
          "internalType": "uint256",
          "name": "_motherId",
          "type": "uint256"
        },
        {
          "internalType": "uint256",
          "name": "_fatherId",
          "type": "uint256"
        }
      ],
      "name": "breed",
      "outputs": [
        {
          "internalType": "uint256",
          "name": "",
          "type": "uint256"
        }
      ],
      "stateMutability": "nonpayable",
      "type": "function"
    },
    {
      "inputs": [
        {
          "internalType": "uint256",
          "name": "_genes",
          "type": "uint256"
        }
      ],
      "name": "createKatGen0",
      "outputs": [
        {
          "internalType": "uint256",
          "name": "",
          "type": "uint256"
        }
      ],
      "stateMutability": "nonpayable",
      "type": "function"
    },
    {
      "inputs": [
        {
          "internalType": "uint256",
          "name": "_id",
          "type": "uint256"
        }
      ],
      "name": "getKat",
      "outputs": [
        {
          "internalType": "uint256",
          "name": "genes",
          "type": "uint256"
        },
        {
          "internalType": "uint256",
          "name": "birthTime",
          "type": "uint256"
        },
        {
          "internalType": "uint256",
          "name": "motherId",
          "type": "uint256"
        },
        {
          "internalType": "uint256",
          "name": "fatherId",
          "type": "uint256"
        },
        {
          "internalType": "uint256",
          "name": "generation",
          "type": "uint256"
        }
      ],
      "stateMutability": "view",
      "type": "function"
    },
    {
      "inputs": [
        {
          "internalType": "address",
          "name": "owner",
          "type": "address"
        }
      ],
      "name": "balanceOf",
      "outputs": [
        {
          "internalType": "uint256",
          "name": "balance",
          "type": "uint256"
        }
      ],
      "stateMutability": "view",
      "type": "function"
    },
    {
      "inputs": [],
      "name": "totalSupply",
      "outputs": [
        {
          "internalType": "uint256",
          "name": "total",
          "type": "uint256"
        }
      ],
      "stateMutability": "view",
      "type": "function"
    },
    {
      "inputs": [],
      "name": "name",
      "outputs": [
        {
          "internalType": "string",
          "name": "_tokenName",
          "type": "string"
        }
      ],
      "stateMutability": "pure",
      "type": "function"
    },
    {
      "inputs": [],
      "name": "symbol",
      "outputs": [
        {
          "internalType": "string",
          "name": "_tokenSymbol",
          "type": "string"
        }
      ],
      "stateMutability": "pure",
      "type": "function"
    },
    {
      "inputs": [
        {
          "internalType": "uint256",
          "name": "_tokenId",
          "type": "uint256"
        }
      ],
      "name": "ownerOf",
      "outputs": [
        {
          "internalType": "address",
          "name": "owner",
          "type": "address"
        }
      ],
      "stateMutability": "view",
      "type": "function"
    },
    {
      "inputs": [
        {
          "internalType": "address",
          "name": "_to",
          "type": "address"
        },
        {
          "internalType": "uint256",
          "name": "_tokenId",
          "type": "uint256"
        }
      ],
      "name": "transfer",
      "outputs": [],
      "stateMutability": "nonpayable",
      "type": "function"
    },
    {
      "inputs": [
        {
          "internalType": "address",
          "name": "_approved",
          "type": "address"
        },
        {
          "internalType": "uint256",
          "name": "_tokenId",
          "type": "uint256"
        }
      ],
      "name": "approve",
      "outputs": [],
      "stateMutability": "nonpayable",
      "type": "function"
    },
    {
      "inputs": [
        {
          "internalType": "address",
          "name": "_operator",
          "type": "address"
        },
        {
          "internalType": "bool",
          "name": "_approved",
          "type": "bool"
        }
      ],
      "name": "setApprovalForAll",
      "outputs": [],
      "stateMutability": "nonpayable",
      "type": "function"
    },
    {
      "inputs": [
        {
          "internalType": "uint256",
          "name": "_tokenId",
          "type": "uint256"
        }
      ],
      "name": "getApproved",
      "outputs": [
        {
          "internalType": "address",
          "name": "",
          "type": "address"
        }
      ],
      "stateMutability": "view",
      "type": "function"
    },
    {
      "inputs": [
        {
          "internalType": "address",
          "name": "_owner",
          "type": "address"
        },
        {
          "internalType": "address",
          "name": "_operator",
          "type": "address"
        }
      ],
      "name": "isApprovedForAll",
      "outputs": [
        {
          "internalType": "bool",
          "name": "",
          "type": "bool"
        }
      ],
      "stateMutability": "view",
      "type": "function"
    },
    {
      "inputs": [
        {
          "internalType": "address",
          "name": "_from",
          "type": "address"
        },
        {
          "internalType": "address",
          "name": "_to",
          "type": "address"
        },
        {
          "internalType": "uint256",
          "name": "_tokenId",
          "type": "uint256"
        }
      ],
      "name": "transferFrom",
      "outputs": [],
      "stateMutability": "nonpayable",
      "type": "function"
    },
    {
      "inputs": [
        {
          "internalType": "address",
          "name": "_from",
          "type": "address"
        },
        {
          "internalType": "address",
          "name": "_to",
          "type": "address"
        },
        {
          "internalType": "uint256",
          "name": "_tokenId",
          "type": "uint256"
        }
      ],
      "name": "safeTransferFrom",
      "outputs": [],
      "stateMutability": "nonpayable",
      "type": "function"
    },
    {
      "inputs": [
        {
          "internalType": "address",
          "name": "_from",
          "type": "address"
        },
        {
          "internalType": "address",
          "name": "_to",
          "type": "address"
        },
        {
          "internalType": "uint256",
          "name": "_tokenId",
          "type": "uint256"
        },
        {
          "internalType": "bytes",
          "name": "_data",
          "type": "bytes"
        }
      ],
      "name": "safeTransferFrom",
      "outputs": [],
      "stateMutability": "nonpayable",
      "type": "function"
    }
  ],
  "bytecode": "0x608060405234801561001057600080fd5b5061002d61002261003260201b60201c565b61003a60201b60201c565b6100fe565b600033905090565b60008060009054906101000a900473ffffffffffffffffffffffffffffffffffffffff169050816000806101000a81548173ffffffffffffffffffffffffffffffffffffffff021916908373ffffffffffffffffffffffffffffffffffffffff1602179055508173ffffffffffffffffffffffffffffffffffffffff168173ffffffffffffffffffffffffffffffffffffffff167f8be0079c531659141344cd1fd0a4f28419497f9722a3daafe3b4186f6b6457e060405160405180910390a35050565b612431806200010e6000396000f3fe608060405234801561001057600080fd5b50600436106101735760003560e01c80637b61c320116100de578063b483433011610097578063e31c062111610071578063e31c06211461044c578063e985e9c514610480578063ef5e94aa146104b0578063f2fde38b146104ce57610173565b8063b4834330146103e2578063b88d4fde14610400578063d9ecad7b1461041c57610173565b80637b61c320146103205780638da5cb5b1461033e57806395d89b411461035c578063a22cb4651461037a578063a9059cbb14610396578063b088d74b146103b257610173565b806323b872dd1161013057806323b872dd1461026057806342842e0e1461027c5780636352211e146102985780636c02a931146102c857806370a08231146102e6578063715018a61461031657610173565b806301ffc9a71461017857806304a72daa146101a857806306fdde03146101d8578063081812fc146101f6578063095ea7b31461022657806318160ddd14610242575b600080fd5b610192600480360381019061018d9190611966565b6104ea565b60405161019f91906119ae565b60405180910390f35b6101c260048036038101906101bd91906119ff565b61058a565b6040516101cf9190611a3b565b60405180910390f35b6101e0610645565b6040516101ed9190611aef565b60405180910390f35b610210600480360381019061020b91906119ff565b610682565b60405161021d9190611b52565b60405180910390f35b610240600480360381019061023b9190611b99565b6106d0565b005b61024a610828565b6040516102579190611a3b565b60405180910390f35b61027a60048036038101906102759190611bd9565b610835565b005b61029660048036038101906102919190611bd9565b6108fc565b005b6102b260048036038101906102ad91906119ff565b61091c565b6040516102bf9190611b52565b60405180910390f35b6102d0610959565b6040516102dd9190611aef565b60405180910390f35b61030060048036038101906102fb9190611c2c565b610992565b60405161030d9190611a3b565b60405180910390f35b61031e6109db565b005b610328610a63565b6040516103359190611aef565b60405180910390f35b610346610a9c565b6040516103539190611b52565b60405180910390f35b610364610ac5565b6040516103719190611aef565b60405180910390f35b610394600480360381019061038f9190611c85565b610b02565b005b6103b060048036038101906103ab9190611b99565b610bff565b005b6103cc60048036038101906103c791906119ff565b610c92565b6040516103d99190611b52565b60405180910390f35b6103ea610cc5565b6040516103f79190611a3b565b60405180910390f35b61041a60048036038101906104159190611d2a565b610cca565b005b61043660048036038101906104319190611db2565b610dd8565b6040516104439190611a3b565b60405180910390f35b610466600480360381019061046191906119ff565b611026565b604051610477959493929190611df2565b60405180910390f35b61049a60048036038101906104959190611e45565b6110dc565b6040516104a791906119ae565b60405180910390f35b6104b8611170565b6040516104c59190611a3b565b60405180910390f35b6104e860048036038101906104e39190611c2c565b611176565b005b60006380ac58cd60e01b7bffffffffffffffffffffffffffffffffffffffffffffffffffffffff1916827bffffffffffffffffffffffffffffffffffffffffffffffffffffffff1916148061058357506301ffc9a760e01b7bffffffffffffffffffffffffffffffffffffffffffffffffffffffff1916827bffffffffffffffffffffffffffffffffffffffffffffffffffffffff1916145b9050919050565b600061059461126d565b73ffffffffffffffffffffffffffffffffffffffff166105b2610a9c565b73ffffffffffffffffffffffffffffffffffffffff1614610608576040517f08c379a00000000000000000000000000000000000000000000000000000000081526004016105ff90611ed1565b60405180910390fd5b600a6001541061061757600080fd5b6001600081548092919061062a90611f20565b919050555061063e60008060008533611275565b9050919050565b60606040518060400160405280600a81526020017f43727970746f4b61747300000000000000000000000000000000000000000000815250905090565b6000600280549050821061069557600080fd5b6005600083815260200190815260200160002060009054906101000a900473ffffffffffffffffffffffffffffffffffffffff169050919050565b60006004600083815260200190815260200160002060009054906101000a900473ffffffffffffffffffffffffffffffffffffffff1690508073ffffffffffffffffffffffffffffffffffffffff168373ffffffffffffffffffffffffffffffffffffffff1603610776576040517f08c379a000000000000000000000000000000000000000000000000000000000815260040161076d90611fb4565b60405180910390fd5b826005600084815260200190815260200160002060006101000a81548173ffffffffffffffffffffffffffffffffffffffff021916908373ffffffffffffffffffffffffffffffffffffffff160217905550818373ffffffffffffffffffffffffffffffffffffffff168273ffffffffffffffffffffffffffffffffffffffff167f8c5be1e5ebec7d5bd14f71427d1e84f3dd0314c0f7b2291e5b200ac8c7c3b92560405160405180910390a4505050565b6000600280549050905090565b600073ffffffffffffffffffffffffffffffffffffffff168273ffffffffffffffffffffffffffffffffffffffff160361086e57600080fd5b8273ffffffffffffffffffffffffffffffffffffffff163373ffffffffffffffffffffffffffffffffffffffff1614806108ae57506108ad3382611402565b5b806108bf57506108be83336110dc565b5b6108c857600080fd5b6108d2838261146e565b6108db57600080fd5b60028054905081106108ec57600080fd5b6108f78383836114da565b505050565b610917838383604051806020016040528060008152506116a1565b505050565b60006004600083815260200190815260200160002060009054906101000a900473ffffffffffffffffffffffffffffffffffffffff169050919050565b6040518060400160405280600a81526020017f43727970746f4b6174730000000000000000000000000000000000000000000081525081565b6000600360008373ffffffffffffffffffffffffffffffffffffffff1673ffffffffffffffffffffffffffffffffffffffff168152602001908152602001600020549050919050565b6109e361126d565b73ffffffffffffffffffffffffffffffffffffffff16610a01610a9c565b73ffffffffffffffffffffffffffffffffffffffff1614610a57576040517f08c379a0000000000000000000000000000000000000000000000000000000008152600401610a4e90611ed1565b60405180910390fd5b610a6160006116c7565b565b6040518060400160405280600281526020017f434b00000000000000000000000000000000000000000000000000000000000081525081565b60008060009054906101000a900473ffffffffffffffffffffffffffffffffffffffff16905090565b60606040518060400160405280600281526020017f434b000000000000000000000000000000000000000000000000000000000000815250905090565b80600660003373ffffffffffffffffffffffffffffffffffffffff1673ffffffffffffffffffffffffffffffffffffffff16815260200190815260200160002060008473ffffffffffffffffffffffffffffffffffffffff1673ffffffffffffffffffffffffffffffffffffffff16815260200190815260200160002060006101000a81548160ff0219169083151502179055508173ffffffffffffffffffffffffffffffffffffffff163373ffffffffffffffffffffffffffffffffffffffff167f17307eab39ab6107e8899845ad3d59bd9653f200f220920489ca2b5937696c3183604051610bf391906119ae565b60405180910390a35050565b600073ffffffffffffffffffffffffffffffffffffffff168273ffffffffffffffffffffffffffffffffffffffff1603610c3857600080fd5b3073ffffffffffffffffffffffffffffffffffffffff168273ffffffffffffffffffffffffffffffffffffffff1603610c7057600080fd5b610c7a338261146e565b610c8357600080fd5b610c8e3383836114da565b5050565b60056020528060005260406000206000915054906101000a900473ffffffffffffffffffffffffffffffffffffffff1681565b600a81565b600073ffffffffffffffffffffffffffffffffffffffff168473ffffffffffffffffffffffffffffffffffffffff1603610d0357600080fd5b8473ffffffffffffffffffffffffffffffffffffffff163373ffffffffffffffffffffffffffffffffffffffff161480610d435750610d423384611402565b5b80610d545750610d5385336110dc565b5b610d5d57600080fd5b610d67858461146e565b610d7057600080fd5b6002805490508310610d8157600080fd5b610dd185858585858080601f016020809104026020016040519081016040528093929190818152602001838380828437600081840152601f19601f820116905080830192505050505050506116a1565b5050505050565b60006004600084815260200190815260200160002060009054906101000a900473ffffffffffffffffffffffffffffffffffffffff1673ffffffffffffffffffffffffffffffffffffffff163373ffffffffffffffffffffffffffffffffffffffff16148015610ea657506004600083815260200190815260200160002060009054906101000a900473ffffffffffffffffffffffffffffffffffffffff1673ffffffffffffffffffffffffffffffffffffffff163373ffffffffffffffffffffffffffffffffffffffff16145b610ee5576040517f08c379a0000000000000000000000000000000000000000000000000000000008152600401610edc90612046565b60405180910390fd5b600060028481548110610efb57610efa612066565b5b906000526020600020906002020160010160109054906101000a900461ffff1661ffff169050600060028481548110610f3757610f36612066565b5b906000526020600020906002020160010160109054906101000a900461ffff1661ffff16905060008282148015610f6e5750600182105b15610f7c5760019050610fa9565b82821115610f9857600182610f919190612095565b9050610fa8565b600183610fa59190612095565b90505b5b600060028781548110610fbf57610fbe612066565b5b9060005260206000209060020201600001549050600060028781548110610fe957610fe8612066565b5b90600052602060002090600202016000015490506000611009838361178b565b90506110188989868433611275565b965050505050505092915050565b6000806000806000806002878154811061104357611042612066565b5b90600052602060002090600202019050806000015495508060010160009054906101000a900467ffffffffffffffff1667ffffffffffffffff1694508060010160089054906101000a900463ffffffff1663ffffffff16935080600101600c9054906101000a900463ffffffff1663ffffffff1692508060010160109054906101000a900461ffff1661ffff1691505091939590929450565b6000600660008473ffffffffffffffffffffffffffffffffffffffff1673ffffffffffffffffffffffffffffffffffffffff16815260200190815260200160002060008373ffffffffffffffffffffffffffffffffffffffff1673ffffffffffffffffffffffffffffffffffffffff16815260200190815260200160002060009054906101000a900460ff16905092915050565b60015481565b61117e61126d565b73ffffffffffffffffffffffffffffffffffffffff1661119c610a9c565b73ffffffffffffffffffffffffffffffffffffffff16146111f2576040517f08c379a00000000000000000000000000000000000000000000000000000000081526004016111e990611ed1565b60405180910390fd5b600073ffffffffffffffffffffffffffffffffffffffff168173ffffffffffffffffffffffffffffffffffffffff1603611261576040517f08c379a00000000000000000000000000000000000000000000000000000000081526004016112589061215d565b60405180910390fd5b61126a816116c7565b50565b600033905090565b6000806040518060a001604052808581526020014267ffffffffffffffff1681526020018863ffffffff1681526020018763ffffffff1681526020018661ffff16815250905060028190806001815401808255809150506001900390600052602060002090600202016000909190919091506000820151816000015560208201518160010160006101000a81548167ffffffffffffffff021916908367ffffffffffffffff16021790555060408201518160010160086101000a81548163ffffffff021916908363ffffffff160217905550606082015181600101600c6101000a81548163ffffffff021916908363ffffffff16021790555060808201518160010160106101000a81548161ffff021916908361ffff1602179055505050600060016002805490506113a7919061217d565b90507f0a5311bd2a6608f08a180df2ee7c5946819a649b204b554bb8e39825b2c50ad584828a8a896040516113e09594939291906121b1565b60405180910390a16113f4600085836114da565b809250505095945050505050565b60008273ffffffffffffffffffffffffffffffffffffffff166005600084815260200190815260200160002060009054906101000a900473ffffffffffffffffffffffffffffffffffffffff1673ffffffffffffffffffffffffffffffffffffffff1614905092915050565b60008273ffffffffffffffffffffffffffffffffffffffff166004600084815260200190815260200160002060009054906101000a900473ffffffffffffffffffffffffffffffffffffffff1673ffffffffffffffffffffffffffffffffffffffff1614905092915050565b600360008373ffffffffffffffffffffffffffffffffffffffff1673ffffffffffffffffffffffffffffffffffffffff168152602001908152602001600020600081548092919061152a90611f20565b9190505550816004600083815260200190815260200160002060006101000a81548173ffffffffffffffffffffffffffffffffffffffff021916908373ffffffffffffffffffffffffffffffffffffffff160217905550600073ffffffffffffffffffffffffffffffffffffffff168373ffffffffffffffffffffffffffffffffffffffff161461164157600360008473ffffffffffffffffffffffffffffffffffffffff1673ffffffffffffffffffffffffffffffffffffffff168152602001908152602001600020600081548092919061160590612204565b91905055506005600082815260200190815260200160002060006101000a81549073ffffffffffffffffffffffffffffffffffffffff02191690555b808273ffffffffffffffffffffffffffffffffffffffff168473ffffffffffffffffffffffffffffffffffffffff167fddf252ad1be2c89b69c2b068fc378daa952ba7f163c4a11628f55a4df523b3ef60405160405180910390a4505050565b6116ac8484846114da565b6116b8848484846117e2565b6116c157600080fd5b50505050565b60008060009054906101000a900473ffffffffffffffffffffffffffffffffffffffff169050816000806101000a81548173ffffffffffffffffffffffffffffffffffffffff021916908373ffffffffffffffffffffffffffffffffffffffff1602179055508173ffffffffffffffffffffffffffffffffffffffff168173ffffffffffffffffffffffffffffffffffffffff167f8be0079c531659141344cd1fd0a4f28419497f9722a3daafe3b4186f6b6457e060405160405180910390a35050565b6000806305f5e1008461179e919061225c565b905060006305f5e100846117b2919061228d565b905060006305f5e100836117c691906122be565b905081816117d49190612095565b905080935050505092915050565b60006117ed846118eb565b6117fa57600190506118e3565b60008473ffffffffffffffffffffffffffffffffffffffff1663150b7a02338887876040518563ffffffff1660e01b815260040161183b949392919061236d565b602060405180830381865afa158015611858573d6000803e3d6000fd5b505050506040513d601f19601f8201168201806040525081019061187c91906123ce565b90507f150b7a023d4804d13e8c85fb27262cb750cf6ba9f9dd3bb30d90f482ceeb4b1f7bffffffffffffffffffffffffffffffffffffffffffffffffffffffff1916817bffffffffffffffffffffffffffffffffffffffffffffffffffffffff1916149150505b949350505050565b600080823b905060008163ffffffff1611915050919050565b600080fd5b600080fd5b60007fffffffff0000000000000000000000000000000000000000000000000000000082169050919050565b6119438161190e565b811461194e57600080fd5b50565b6000813590506119608161193a565b92915050565b60006020828403121561197c5761197b611904565b5b600061198a84828501611951565b91505092915050565b60008115159050919050565b6119a881611993565b82525050565b60006020820190506119c3600083018461199f565b92915050565b6000819050919050565b6119dc816119c9565b81146119e757600080fd5b50565b6000813590506119f9816119d3565b92915050565b600060208284031215611a1557611a14611904565b5b6000611a23848285016119ea565b91505092915050565b611a35816119c9565b82525050565b6000602082019050611a506000830184611a2c565b92915050565b600081519050919050565b600082825260208201905092915050565b60005b83811015611a90578082015181840152602081019050611a75565b83811115611a9f576000848401525b50505050565b6000601f19601f8301169050919050565b6000611ac182611a56565b611acb8185611a61565b9350611adb818560208601611a72565b611ae481611aa5565b840191505092915050565b60006020820190508181036000830152611b098184611ab6565b905092915050565b600073ffffffffffffffffffffffffffffffffffffffff82169050919050565b6000611b3c82611b11565b9050919050565b611b4c81611b31565b82525050565b6000602082019050611b676000830184611b43565b92915050565b611b7681611b31565b8114611b8157600080fd5b50565b600081359050611b9381611b6d565b92915050565b60008060408385031215611bb057611baf611904565b5b6000611bbe85828601611b84565b9250506020611bcf858286016119ea565b9150509250929050565b600080600060608486031215611bf257611bf1611904565b5b6000611c0086828701611b84565b9350506020611c1186828701611b84565b9250506040611c22868287016119ea565b9150509250925092565b600060208284031215611c4257611c41611904565b5b6000611c5084828501611b84565b91505092915050565b611c6281611993565b8114611c6d57600080fd5b50565b600081359050611c7f81611c59565b92915050565b60008060408385031215611c9c57611c9b611904565b5b6000611caa85828601611b84565b9250506020611cbb85828601611c70565b9150509250929050565b600080fd5b600080fd5b600080fd5b60008083601f840112611cea57611ce9611cc5565b5b8235905067ffffffffffffffff811115611d0757611d06611cca565b5b602083019150836001820283011115611d2357611d22611ccf565b5b9250929050565b600080600080600060808688031215611d4657611d45611904565b5b6000611d5488828901611b84565b9550506020611d6588828901611b84565b9450506040611d76888289016119ea565b935050606086013567ffffffffffffffff811115611d9757611d96611909565b5b611da388828901611cd4565b92509250509295509295909350565b60008060408385031215611dc957611dc8611904565b5b6000611dd7858286016119ea565b9250506020611de8858286016119ea565b9150509250929050565b600060a082019050611e076000830188611a2c565b611e146020830187611a2c565b611e216040830186611a2c565b611e2e6060830185611a2c565b611e3b6080830184611a2c565b9695505050505050565b60008060408385031215611e5c57611e5b611904565b5b6000611e6a85828601611b84565b9250506020611e7b85828601611b84565b9150509250929050565b7f4f776e61626c653a2063616c6c6572206973206e6f7420746865206f776e6572600082015250565b6000611ebb602083611a61565b9150611ec682611e85565b602082019050919050565b60006020820190508181036000830152611eea81611eae565b9050919050565b7f4e487b7100000000000000000000000000000000000000000000000000000000600052601160045260246000fd5b6000611f2b826119c9565b91507fffffffffffffffffffffffffffffffffffffffffffffffffffffffffffffffff8203611f5d57611f5c611ef1565b5b600182019050919050565b7f4f776e657220697320616c726561647920617070726f76656400000000000000600082015250565b6000611f9e601983611a61565b9150611fa982611f68565b602082019050919050565b60006020820190508181036000830152611fcd81611f91565b9050919050565b7f596f75206d757374206f776e20626f746820706172656e747320746f2062726560008201527f6564000000000000000000000000000000000000000000000000000000000000602082015250565b6000612030602283611a61565b915061203b82611fd4565b604082019050919050565b6000602082019050818103600083015261205f81612023565b9050919050565b7f4e487b7100000000000000000000000000000000000000000000000000000000600052603260045260246000fd5b60006120a0826119c9565b91506120ab836119c9565b9250827fffffffffffffffffffffffffffffffffffffffffffffffffffffffffffffffff038211156120e0576120df611ef1565b5b828201905092915050565b7f4f776e61626c653a206e6577206f776e657220697320746865207a65726f206160008201527f6464726573730000000000000000000000000000000000000000000000000000602082015250565b6000612147602683611a61565b9150612152826120eb565b604082019050919050565b600060208201905081810360008301526121768161213a565b9050919050565b6000612188826119c9565b9150612193836119c9565b9250828210156121a6576121a5611ef1565b5b828203905092915050565b600060a0820190506121c66000830188611b43565b6121d36020830187611a2c565b6121e06040830186611a2c565b6121ed6060830185611a2c565b6121fa6080830184611a2c565b9695505050505050565b600061220f826119c9565b91506000820361222257612221611ef1565b5b600182039050919050565b7f4e487b7100000000000000000000000000000000000000000000000000000000600052601260045260246000fd5b6000612267826119c9565b9150612272836119c9565b9250826122825761228161222d565b5b828204905092915050565b6000612298826119c9565b91506122a3836119c9565b9250826122b3576122b261222d565b5b828206905092915050565b60006122c9826119c9565b91506122d4836119c9565b9250817fffffffffffffffffffffffffffffffffffffffffffffffffffffffffffffffff048311821515161561230d5761230c611ef1565b5b828202905092915050565b600081519050919050565b600082825260208201905092915050565b600061233f82612318565b6123498185612323565b9350612359818560208601611a72565b61236281611aa5565b840191505092915050565b60006080820190506123826000830187611b43565b61238f6020830186611b43565b61239c6040830185611a2c565b81810360608301526123ae8184612334565b905095945050505050565b6000815190506123c88161193a565b92915050565b6000602082840312156123e4576123e3611904565b5b60006123f2848285016123b9565b9150509291505056fea26469706673582212203d0aeb99870ed291c718acac398ce7af7f71df0264e2c8f3a43a21adac3d008264736f6c634300080d0033",
  "immutableReferences": {},
  "source": "// SPDX-License-Identifier: MIT\npragma solidity 0.8.13;\n\nimport \"./IERC721.sol\";\nimport \"./IERC721Receiver.sol\";\nimport \"../node_modules/@openzeppelin/contracts/access/Ownable.sol\";\n\ncontract Katcontract is IERC721, Ownable {\n\n    /**\n     * @dev List of Token & Interface constants.\n     */\n    string public constant tokenName = \"CryptoKats\";\n    string public constant tokenSymbol = \"CK\";\n    uint256 public constant CREATION_LIMIT_GEN0 = 10;\n    bytes4 internal constant MAGIC_ERC721_RECEIVED = bytes4(keccak256(\"onERC721Received(address,address,uint256,bytes)\"));\n    bytes4 private constant _INTERFACE_ID_ERC721 = 0x80ac58cd;\n    bytes4 private constant _INTERFACE_ID_ERC615 = 0x01ffc9a7;\n\n    /**\n     * @dev Counter to limit to minting of Gen0 NFTs.\n     */\n    uint256 public gen0Counter;\n\n    /**\n     * @dev Verifies adoption of ERC721 & ERC615 Standards\n     */\n    function supportsInterface(bytes4 _interfaceId) external pure returns (bool) {\n        return ( _interfaceId == _INTERFACE_ID_ERC721 || _interfaceId == _INTERFACE_ID_ERC615);\n    }\n\n    /**\n     * @dev Event where new CryptoKat is created.\n     */\n    event Birth(\n        address owner, \n        uint256 katId, \n        uint256 motherId, \n        uint256 fatherId, \n        uint256 genes\n        );\n\n    /**\n     * @dev Struct of CryptoKat NFT\n     */\n    struct Kat {\n        uint256 genes;\n        uint64 birthTime;\n        uint32 motherId;\n        uint32 fatherId;\n        uint16 generation;\n    }\n\n    /**\n     * @dev Breeding function that takes motherId and fatherId to create new CryptoKat NFT\n     */\n    function breed(uint256 _motherId, uint256 _fatherId) public returns (uint256) {\n      // check ownership\n      require(msg.sender == idToOwner[_motherId] && msg.sender == idToOwner[_fatherId], \"You must own both parents to breed\");\n\n      uint256 _motherGen = kats[_motherId].generation;\n      uint256 _fatherGen = kats[_fatherId].generation;\n      uint256 _childGen = 0;\n\n      if(_fatherGen == _motherGen && _fatherGen < 1) {\n        _childGen = 1;\n      }\n      else {\n        if (_fatherGen > _motherGen) {\n          _childGen = _fatherGen + 1;\n        }\n        else {\n          _childGen = _motherGen + 1;\n        }\n      }\n\n      uint256 _motherDna = kats[_motherId].genes;\n      uint256 _fatherDna = kats[_fatherId].genes;\n      uint256 newDna = _mixDna(_motherDna, _fatherDna);\n\n      return _createKat(_motherId, _fatherId, _childGen, newDna, msg.sender);\n    }\n\n    /**\n     * @dev Array of all CryptoKat NFTs.\n     */\n    Kat[] internal kats;\n\n    /**\n     * @dev Mapping from owner address to count of their tokens.\n     */\n    mapping(address => uint256) private ownedTokenCount;\n\n    /**\n     * @dev Mapping from tokenId to the address that owns it.\n     */\n    mapping(uint256 => address) internal idToOwner;\n\n    /**\n     * @dev Mapping of approved addresses to transfer tokens.\n     */\n    mapping (uint256 => address) public idToApproved;\n\n    /**\n     * @dev Mapping from owner address to mapping of operator addresses.\n     */\n    mapping (address => mapping (address => bool)) private _operatorApprovals;\n\n    /*************************************************************/\n\n    /**\n     * @dev Gen0 creation of a CryptoKat NFT.\n     */\n    function createKatGen0(uint256 _genes) public onlyOwner returns (uint256) {\n        require(gen0Counter < CREATION_LIMIT_GEN0);\n\n        gen0Counter++;\n\n        return _createKat(0, 0, 0, _genes, msg.sender);\n    }\n\n    /**\n     * @dev Creation of new Kat.\n     */\n    function _createKat(\n        uint256 _motherId,\n        uint256 _fatherId,\n        uint256 _generation,\n        uint256 _genes,\n        address _owner\n    ) private returns (uint256) {\n        Kat memory _kat = Kat({\n            genes: _genes,\n            birthTime: uint64(block.timestamp),\n            motherId: uint32(_motherId),\n            fatherId: uint32(_fatherId),\n            generation: uint16(_generation)\n        });\n\n        kats.push(_kat);\n        uint256 newKatId = kats.length - 1;\n\n        emit Birth(_owner, newKatId, _motherId, _fatherId, _genes);\n\n        _transfer(address(0), _owner, newKatId);\n\n        return newKatId;\n    }\n\n    /**\n     * @dev Returns properties of CryptoKat NFT by tokenId.\n     */\n    function getKat(uint256 _id) external view returns(\n        uint256 genes,\n        uint256 birthTime,\n        uint256 motherId,\n        uint256 fatherId,\n        uint256 generation\n        ) {\n\n            Kat storage kat = kats[_id];\n\n            genes = uint256(kat.genes);\n            birthTime = uint256(kat.birthTime);\n            motherId = uint256(kat.motherId);\n            fatherId = uint256(kat.fatherId);\n            generation = uint256(kat.generation);\n        }\n\n    /**\n     * @dev Returns the total number of tokens in circulation.\n     */    \n    function balanceOf(address owner) external view returns (uint256 balance){\n        return ownedTokenCount[owner];\n    }\n\n    /**\n     * @dev Returns the count of all existing NFTs.\n     * @return total supply of NFTs.\n     */\n    function totalSupply() external view returns (uint256 total){\n        return kats.length;\n    }\n\n    /**\n     * @dev Returns the name of the token.\n     */\n    function name() external pure returns (string memory _tokenName){\n       _tokenName = tokenName;\n    }\n\n    /**\n     * @dev Returns the symbol of the token.\n     */\n    function symbol() external pure returns (string memory _tokenSymbol){\n        _tokenSymbol = tokenSymbol;\n    }\n\n    /**\n     * @dev Returns the owner of the `tokenId` token.\n     */\n    function ownerOf(uint256 _tokenId) external view returns (address owner){\n        return idToOwner[_tokenId];\n    }\n\n    /**\n     * @dev Transfers `tokenId` token from `msg.sender` to `to`.\n     * Emits a transfer event\n     */\n    function transfer(address _to, uint256 _tokenId) external {\n        require(_to != address(0));\n        require(_to != address(this));\n        require(_owns(msg.sender, _tokenId));\n\n        _transfer(msg.sender, _to, _tokenId);\n    }\n\n    /**\n     * @dev Internal handling of ownedTokenCount from `msg.sender` to `to`.\n     */\n    function _transfer(address _from, address _to, uint256 _tokenId) internal {\n        // Increase token count of recipient \n        ownedTokenCount[_to]++;\n        // set tokenId to recipient\n        idToOwner[_tokenId] = _to;\n\n        if (_from != address(0)) {\n            // decrease token count from sender\n            ownedTokenCount[_from]--;\n            delete idToApproved[_tokenId];\n        }\n\n        // Emit transfer event\n        emit Transfer(_from, _to, _tokenId);\n    }\n\n    /**\n     * @notice Change or reaffirm the approved address for an NFT\n     * @dev The zero address indicates there is no approved address.\n     * Throws unless `msg.sender` is the current NFT owner, or an authorized\n     * operator of the current owner.\n     * @param _approved The new approved NFT controller\n     * @param _tokenId The NFT to approve\n     */\n    function approve(address _approved, uint256 _tokenId) external {\n        address owner = idToOwner[_tokenId];\n        require(_approved != owner, \"Owner is already approved\");\n\n        idToApproved[_tokenId] = _approved;\n        emit Approval(owner, _approved, _tokenId);\n    }\n\n    /**\n     * @notice Enable or disable approval for a third party (\"operator\") to manage\n     * all of `msg.sender`'s assets\n     * @dev Emits the ApprovalForAll event. The contract MUST allow\n     * multiple operators per owner.\n     * @param _operator Address to add to the set of authorized operators\n     * @param _approved True if the operator is approved, false to revoke approval\n     */\n    function setApprovalForAll(address _operator, bool _approved) external {\n        _operatorApprovals[msg.sender][_operator] = _approved;\n\n        emit ApprovalForAll(msg.sender, _operator, _approved);\n    }\n\n    /**\n     * @notice Get the approved address for a single NFT\n     * @dev Throws if `_tokenId` is not a valid NFT.\n     * @param _tokenId The NFT to find the approved address for\n     * @return The approved address for this NFT, or the zero address if there is none\n     */\n    function getApproved(uint256 _tokenId) external view returns (address) {\n        require(_tokenId < kats.length); // Token must exist\n\n        return idToApproved[_tokenId];\n    }\n\n    /**\n     * @notice Query if an address is an authorized operator for another address\n     * @param _owner The address that owns the NFTs\n     * @param _operator The address that acts on behalf of the owner\n     * @return True if `_operator` is an approved operator for `_owner`, false otherwise\n     */\n    function isApprovedForAll(address _owner, address _operator) public view returns (bool) {\n        return _operatorApprovals[_owner][_operator];\n    }\n\n    /**\n     * @notice Transfer ownership of an NFT -- THE CALLER IS RESPONSIBLE\n     *  TO CONFIRM THAT `_to` IS CAPABLE OF RECEIVING NFTS OR ELSE\n     *  THEY MAY BE PERMANENTLY LOST\n     * @dev Throws unless `msg.sender` is the current owner, an authorized\n     *  operator, or the approved address for this NFT. Throws if `_from` is\n     *  not the current owner. Throws if `_to` is the zero address. Throws if\n     *  `_tokenId` is not a valid NFT.\n     * @param _from The current owner of the NFT\n     * @param _to The new owner\n     * @param _tokenId The NFT to transfer\n     */\n    function transferFrom(address _from, address _to, uint256 _tokenId) external {\n        require(_to != address(0));\n        require(msg.sender == _from || _approvedFor(msg.sender, _tokenId) || isApprovedForAll(_from, msg.sender));\n        require(_owns(_from, _tokenId));\n        require(_tokenId < kats.length);\n\n        _transfer(_from, _to, _tokenId);\n    }\n\n    /**\n     * @dev Verifies receiver can handle payload and perfoms transfer from.\n     */\n    function _safeTransfer(address _from, address _to, uint256 _tokenId, bytes memory _data) internal {\n        _transfer(_from, _to, _tokenId);\n        require(_checkERC721Support(_from, _to, _tokenId, _data) );\n    }\n\n    /**\n     * @notice Transfers the ownership of an NFT from one address to another address\n     * @dev Throws unless `msg.sender` is the current owner, an authorized\n     *  operator, or the approved address for this NFT. Throws if `_from` is\n     *  not the current owner. Throws if `_to` is the zero address. Throws if\n     *  `_tokenId` is not a valid NFT. When transfer is complete, this function\n     *  checks if `_to` is a smart contract (code size > 0). If so, it calls\n     *  `onERC721Received` on `_to` and throws if the return value is not\n     *  `bytes4(keccak256(\"onERC721Received(address,address,uint256,bytes)\"))`.\n     * @param _from The current owner of the NFT\n     * @param _to The new owner\n     * @param _tokenId The NFT to transfer\n     * @param _data Additional data with no specified format, sent in call to `_to`\n     */\n    function safeTransferFrom(address _from, address _to, uint256 _tokenId, bytes calldata _data) external {\n        require(_to != address(0));\n        require(msg.sender == _from || _approvedFor(msg.sender, _tokenId) || isApprovedForAll(_from, msg.sender));\n        require(_owns(_from, _tokenId));\n        require(_tokenId < kats.length);\n\n        _safeTransfer(_from, _to, _tokenId, _data);\n    }\n\n    /**\n     * @notice Transfers the ownership of an NFT from one address to another address\n     * @dev This works identically to the other function with an extra data parameter,\n     *  except this function just sets data to \"\".\n     * @param _from The current owner of the NFT\n     * @param _to The new owner\n     * @param _tokenId The NFT to transfer\n     */\n    function safeTransferFrom(address _from, address _to, uint256 _tokenId) external {\n        _safeTransfer(_from, _to, _tokenId, \"\");\n    }\n\n    /**\n     * @dev Verifies `msg.sender` owns the NFT.\n     */\n    function _owns(address _claimant, uint256 _tokenId) internal view returns (bool) {\n        return idToOwner[_tokenId] == _claimant;\n    }\n\n    /**\n     * @dev Set or reaffirm the approved address for an NFT.\n     */\n    function _approve(uint256 _tokenId, address _approved) internal {\n        idToApproved[_tokenId] = _approved;\n    }\n\n    /**\n     * @dev Verifies approved address is approved for NFT.\n     */\n    function _approvedFor(address _claimant, uint256 _tokenId) internal view returns (bool) {\n        return idToApproved[_tokenId] == _claimant;\n    }\n\n    /**\n     * @dev Checks _to address is an approved ERC721 token and can handle payload.\n     */\n    function _checkERC721Support(address _from, address _to, uint256 _tokenId, bytes memory _data) internal view returns (bool) {\n        if (!_isContract(_to)) {\n            return true;\n        }\n\n        bytes4 returnData = IERC721Receiver(_to).onERC721Received(msg.sender, _from, _tokenId, _data);\n        return returnData == MAGIC_ERC721_RECEIVED;\n    }\n\n    /**\n     * @dev Returns size of data in _to address.\n     */\n    function _isContract(address _to) view internal returns (bool) {\n        uint32 size;\n        assembly{\n            // get the size of the code that is in the address.\n            size := extcodesize(_to)\n        }\n        return size > 0;\n\n    }\n\n    /**\n     * @dev Mixes the motherDna and fatherDna to produce\n     */\n    function _mixDna(uint256 _motherDna, uint256 _fatherDna) internal pure returns (uint256) {\n        uint256 _firstHalf = _motherDna / 100000000;\n        uint256 _secondHalf = _fatherDna % 100000000;\n\n        uint256 newDna = _firstHalf * 100000000;\n        newDna = newDna + _secondHalf;\n        return newDna;\n    }\n\n}\n",
  "sourcePath": "/Users/alexjohnson/Desktop/projects/moralis_projects/crypto_kitties_clone/contracts/Katcontract.sol",
  "compiler": {
    "name": "solc",
    "version": "0.8.13+commit.abaa5c0e.Emscripten.clang"
  },
  "schemaVersion": "3.4.4",
  "updatedAt": "2022-04-29T16:19:22.106Z",
  "devdoc": {
    "events": {
      "Birth(address,uint256,uint256,uint256,uint256)": {
        "details": "Event where new CryptoKat is created."
      }
    },
    "kind": "dev",
    "methods": {
      "approve(address,uint256)": {
        "details": "The zero address indicates there is no approved address. Throws unless `msg.sender` is the current NFT owner, or an authorized operator of the current owner.",
        "params": {
          "_approved": "The new approved NFT controller",
          "_tokenId": "The NFT to approve"
        }
      },
      "balanceOf(address)": {
        "details": "Returns the total number of tokens in circulation."
      },
      "breed(uint256,uint256)": {
        "details": "Breeding function that takes motherId and fatherId to create new CryptoKat NFT"
      },
      "createKatGen0(uint256)": {
        "details": "Gen0 creation of a CryptoKat NFT."
      },
      "getApproved(uint256)": {
        "details": "Throws if `_tokenId` is not a valid NFT.",
        "params": {
          "_tokenId": "The NFT to find the approved address for"
        },
        "returns": {
          "_0": "The approved address for this NFT, or the zero address if there is none"
        }
      },
      "getKat(uint256)": {
        "details": "Returns properties of CryptoKat NFT by tokenId."
      },
      "isApprovedForAll(address,address)": {
        "params": {
          "_operator": "The address that acts on behalf of the owner",
          "_owner": "The address that owns the NFTs"
        },
        "returns": {
          "_0": "True if `_operator` is an approved operator for `_owner`, false otherwise"
        }
      },
      "name()": {
        "details": "Returns the name of the token."
      },
      "owner()": {
        "details": "Returns the address of the current owner."
      },
      "ownerOf(uint256)": {
        "details": "Returns the owner of the `tokenId` token."
      },
      "renounceOwnership()": {
        "details": "Leaves the contract without owner. It will not be possible to call `onlyOwner` functions anymore. Can only be called by the current owner. NOTE: Renouncing ownership will leave the contract without an owner, thereby removing any functionality that is only available to the owner."
      },
      "safeTransferFrom(address,address,uint256)": {
        "details": "This works identically to the other function with an extra data parameter,  except this function just sets data to \"\".",
        "params": {
          "_from": "The current owner of the NFT",
          "_to": "The new owner",
          "_tokenId": "The NFT to transfer"
        }
      },
      "safeTransferFrom(address,address,uint256,bytes)": {
        "details": "Throws unless `msg.sender` is the current owner, an authorized  operator, or the approved address for this NFT. Throws if `_from` is  not the current owner. Throws if `_to` is the zero address. Throws if  `_tokenId` is not a valid NFT. When transfer is complete, this function  checks if `_to` is a smart contract (code size > 0). If so, it calls  `onERC721Received` on `_to` and throws if the return value is not  `bytes4(keccak256(\"onERC721Received(address,address,uint256,bytes)\"))`.",
        "params": {
          "_data": "Additional data with no specified format, sent in call to `_to`",
          "_from": "The current owner of the NFT",
          "_to": "The new owner",
          "_tokenId": "The NFT to transfer"
        }
      },
      "setApprovalForAll(address,bool)": {
        "details": "Emits the ApprovalForAll event. The contract MUST allow multiple operators per owner.",
        "params": {
          "_approved": "True if the operator is approved, false to revoke approval",
          "_operator": "Address to add to the set of authorized operators"
        }
      },
      "supportsInterface(bytes4)": {
        "details": "Verifies adoption of ERC721 & ERC615 Standards"
      },
      "symbol()": {
        "details": "Returns the symbol of the token."
      },
      "totalSupply()": {
        "details": "Returns the count of all existing NFTs.",
        "returns": {
          "total": "supply of NFTs."
        }
      },
      "transfer(address,uint256)": {
        "details": "Transfers `tokenId` token from `msg.sender` to `to`. Emits a transfer event"
      },
      "transferFrom(address,address,uint256)": {
        "details": "Throws unless `msg.sender` is the current owner, an authorized  operator, or the approved address for this NFT. Throws if `_from` is  not the current owner. Throws if `_to` is the zero address. Throws if  `_tokenId` is not a valid NFT.",
        "params": {
          "_from": "The current owner of the NFT",
          "_to": "The new owner",
          "_tokenId": "The NFT to transfer"
        }
      },
      "transferOwnership(address)": {
        "details": "Transfers ownership of the contract to a new account (`newOwner`). Can only be called by the current owner."
      }
    },
    "stateVariables": {
      "_operatorApprovals": {
        "details": "Mapping from owner address to mapping of operator addresses."
      },
      "gen0Counter": {
        "details": "Counter to limit to minting of Gen0 NFTs."
      },
      "idToApproved": {
        "details": "Mapping of approved addresses to transfer tokens."
      },
      "idToOwner": {
        "details": "Mapping from tokenId to the address that owns it."
      },
      "kats": {
        "details": "Array of all CryptoKat NFTs."
      },
      "ownedTokenCount": {
        "details": "Mapping from owner address to count of their tokens."
      },
      "tokenName": {
        "details": "List of Token & Interface constants."
      }
    },
    "version": 1
  },
  "userdoc": {
    "kind": "user",
    "methods": {
      "approve(address,uint256)": {
        "notice": "Change or reaffirm the approved address for an NFT"
      },
      "getApproved(uint256)": {
        "notice": "Get the approved address for a single NFT"
      },
      "isApprovedForAll(address,address)": {
        "notice": "Query if an address is an authorized operator for another address"
      },
      "safeTransferFrom(address,address,uint256)": {
        "notice": "Transfers the ownership of an NFT from one address to another address"
      },
      "safeTransferFrom(address,address,uint256,bytes)": {
        "notice": "Transfers the ownership of an NFT from one address to another address"
      },
      "setApprovalForAll(address,bool)": {
        "notice": "Enable or disable approval for a third party (\"operator\") to manage all of `msg.sender`'s assets"
      },
      "transferFrom(address,address,uint256)": {
        "notice": "Transfer ownership of an NFT -- THE CALLER IS RESPONSIBLE  TO CONFIRM THAT `_to` IS CAPABLE OF RECEIVING NFTS OR ELSE  THEY MAY BE PERMANENTLY LOST"
      }
    },
    "version": 1
  }
}